{
  "contractName": "Oracle",
  "abi": [
    {
      "inputs": [],
      "stateMutability": "nonpayable",
      "type": "constructor"
    },
    {
      "anonymous": false,
      "inputs": [],
      "name": "__callbackNewData",
      "type": "event"
    },
    {
      "inputs": [],
      "name": "numAsteroids",
      "outputs": [
        {
          "internalType": "uint256",
          "name": "",
          "type": "uint256"
        }
      ],
      "stateMutability": "view",
      "type": "function",
      "constant": true
    },
    {
      "inputs": [],
      "name": "update",
      "outputs": [],
      "stateMutability": "nonpayable",
      "type": "function"
    },
    {
      "inputs": [
        {
          "internalType": "uint256",
          "name": "_numAsteroids",
          "type": "uint256"
        }
      ],
      "name": "setNumAsteroids",
      "outputs": [],
      "stateMutability": "nonpayable",
      "type": "function"
    }
  ],
  "bytecode": "0x608060405234801561001057600080fd5b50336000806101000a81548173ffffffffffffffffffffffffffffffffffffffff021916908373ffffffffffffffffffffffffffffffffffffffff160217905550610329806100606000396000f3fe608060405234801561001057600080fd5b50600436106100415760003560e01c806301d05e9d14610046578063a2e6204514610062578063e1a74b951461006c575b600080fd5b610060600480360381019061005b919061021f565b61008a565b005b61006a610122565b005b6100746101de565b604051610081919061025b565b60405180910390f35b3373ffffffffffffffffffffffffffffffffffffffff1660008054906101000a900473ffffffffffffffffffffffffffffffffffffffff1673ffffffffffffffffffffffffffffffffffffffff1614610118576040517f08c379a000000000000000000000000000000000000000000000000000000000815260040161010f906102d3565b60405180910390fd5b8060018190555050565b3373ffffffffffffffffffffffffffffffffffffffff1660008054906101000a900473ffffffffffffffffffffffffffffffffffffffff1673ffffffffffffffffffffffffffffffffffffffff16146101b0576040517f08c379a00000000000000000000000000000000000000000000000000000000081526004016101a7906102d3565b60405180910390fd5b7f2bfb84d8e96bf2a06daf6ebca52197c6c24fcd7c9c9c1f434c3bc9e59a92f1c160405160405180910390a1565b60015481565b600080fd5b6000819050919050565b6101fc816101e9565b811461020757600080fd5b50565b600081359050610219816101f3565b92915050565b600060208284031215610235576102346101e4565b5b60006102438482850161020a565b91505092915050565b610255816101e9565b82525050565b6000602082019050610270600083018461024c565b92915050565b600082825260208201905092915050565b7f4f6e6c79206f776e65722063616e20646f207468697300000000000000000000600082015250565b60006102bd601683610276565b91506102c882610287565b602082019050919050565b600060208201905081810360008301526102ec816102b0565b905091905056fea26469706673582212200c32d5507103f723cb7df48fcaa4eb16ee41aeb78107ae7e09d0c8d5cf289f5064736f6c634300080b0033",
  "immutableReferences": {},
  "source": "// SPDX-License-Identifier: MIT\npragma solidity >=0.4.22 <0.9.0;\n\ncontract Oracle {\n  address owner;\n\n  // Número de asteroides que se prevee van a caer\n  uint public numAsteroids;\n\n  constructor(){\n    // Establecemos el owner\n    owner = msg.sender;\n  }\n\n  // Modificador que permita que solo el owner ejecute ciertas funciones\n  modifier onlyOwner(){\n    require(owner == msg.sender, \"Only owner can do this\");\n    _;\n  }\n\n  // Evento que reciba datos del oráculo\n  event __callbackNewData();\n\n  //Función para actualizar datos recibidos del oráculo\n  function update() public onlyOwner {\n    emit __callbackNewData();\n  }\n  \n  //Configuración manual numAsteroids\n  function setNumAsteroids(uint _numAsteroids) public onlyOwner{\n    numAsteroids = _numAsteroids;\n  }\n}\n",
  "sourcePath": "/mnt/c/Users/Newton/Desktop/Oscar/learning-dapps/3. Oráculos/3.2. Cración de oráculo para Smart Contracts/contracts/Oracle.sol",
  "compiler": {
    "name": "solc",
    "version": "0.8.11+commit.d7f03943.Emscripten.clang"
  },
  "schemaVersion": "3.4.4",
  "updatedAt": "2022-01-18T12:30:38.255Z",
  "networkType": "ethereum",
  "devdoc": {
    "kind": "dev",
    "methods": {},
    "version": 1
  },
  "userdoc": {
    "kind": "user",
    "methods": {},
    "version": 1
  }
}