{
  "contractName": "Color",
  "abi": [
    {
      "inputs": [],
      "stateMutability": "nonpayable",
      "type": "constructor"
    },
    {
      "anonymous": false,
      "inputs": [
        {
          "indexed": true,
          "internalType": "address",
          "name": "owner",
          "type": "address"
        },
        {
          "indexed": true,
          "internalType": "address",
          "name": "approved",
          "type": "address"
        },
        {
          "indexed": true,
          "internalType": "uint256",
          "name": "tokenId",
          "type": "uint256"
        }
      ],
      "name": "Approval",
      "type": "event"
    },
    {
      "anonymous": false,
      "inputs": [
        {
          "indexed": true,
          "internalType": "address",
          "name": "owner",
          "type": "address"
        },
        {
          "indexed": true,
          "internalType": "address",
          "name": "operator",
          "type": "address"
        },
        {
          "indexed": false,
          "internalType": "bool",
          "name": "approved",
          "type": "bool"
        }
      ],
      "name": "ApprovalForAll",
      "type": "event"
    },
    {
      "anonymous": false,
      "inputs": [
        {
          "indexed": true,
          "internalType": "address",
          "name": "from",
          "type": "address"
        },
        {
          "indexed": true,
          "internalType": "address",
          "name": "to",
          "type": "address"
        },
        {
          "indexed": true,
          "internalType": "uint256",
          "name": "tokenId",
          "type": "uint256"
        }
      ],
      "name": "Transfer",
      "type": "event"
    },
    {
      "inputs": [
        {
          "internalType": "address",
          "name": "to",
          "type": "address"
        },
        {
          "internalType": "uint256",
          "name": "tokenId",
          "type": "uint256"
        }
      ],
      "name": "approve",
      "outputs": [],
      "stateMutability": "nonpayable",
      "type": "function"
    },
    {
      "inputs": [
        {
          "internalType": "address",
          "name": "owner",
          "type": "address"
        }
      ],
      "name": "balanceOf",
      "outputs": [
        {
          "internalType": "uint256",
          "name": "",
          "type": "uint256"
        }
      ],
      "stateMutability": "view",
      "type": "function",
      "constant": true
    },
    {
      "inputs": [
        {
          "internalType": "uint256",
          "name": "",
          "type": "uint256"
        }
      ],
      "name": "colors",
      "outputs": [
        {
          "internalType": "string",
          "name": "",
          "type": "string"
        }
      ],
      "stateMutability": "view",
      "type": "function",
      "constant": true
    },
    {
      "inputs": [
        {
          "internalType": "uint256",
          "name": "tokenId",
          "type": "uint256"
        }
      ],
      "name": "getApproved",
      "outputs": [
        {
          "internalType": "address",
          "name": "",
          "type": "address"
        }
      ],
      "stateMutability": "view",
      "type": "function",
      "constant": true
    },
    {
      "inputs": [
        {
          "internalType": "address",
          "name": "owner",
          "type": "address"
        },
        {
          "internalType": "address",
          "name": "operator",
          "type": "address"
        }
      ],
      "name": "isApprovedForAll",
      "outputs": [
        {
          "internalType": "bool",
          "name": "",
          "type": "bool"
        }
      ],
      "stateMutability": "view",
      "type": "function",
      "constant": true
    },
    {
      "inputs": [],
      "name": "name",
      "outputs": [
        {
          "internalType": "string",
          "name": "",
          "type": "string"
        }
      ],
      "stateMutability": "view",
      "type": "function",
      "constant": true
    },
    {
      "inputs": [
        {
          "internalType": "uint256",
          "name": "tokenId",
          "type": "uint256"
        }
      ],
      "name": "ownerOf",
      "outputs": [
        {
          "internalType": "address",
          "name": "",
          "type": "address"
        }
      ],
      "stateMutability": "view",
      "type": "function",
      "constant": true
    },
    {
      "inputs": [
        {
          "internalType": "address",
          "name": "from",
          "type": "address"
        },
        {
          "internalType": "address",
          "name": "to",
          "type": "address"
        },
        {
          "internalType": "uint256",
          "name": "tokenId",
          "type": "uint256"
        }
      ],
      "name": "safeTransferFrom",
      "outputs": [],
      "stateMutability": "nonpayable",
      "type": "function"
    },
    {
      "inputs": [
        {
          "internalType": "address",
          "name": "from",
          "type": "address"
        },
        {
          "internalType": "address",
          "name": "to",
          "type": "address"
        },
        {
          "internalType": "uint256",
          "name": "tokenId",
          "type": "uint256"
        },
        {
          "internalType": "bytes",
          "name": "_data",
          "type": "bytes"
        }
      ],
      "name": "safeTransferFrom",
      "outputs": [],
      "stateMutability": "nonpayable",
      "type": "function"
    },
    {
      "inputs": [
        {
          "internalType": "address",
          "name": "operator",
          "type": "address"
        },
        {
          "internalType": "bool",
          "name": "approved",
          "type": "bool"
        }
      ],
      "name": "setApprovalForAll",
      "outputs": [],
      "stateMutability": "nonpayable",
      "type": "function"
    },
    {
      "inputs": [
        {
          "internalType": "bytes4",
          "name": "interfaceId",
          "type": "bytes4"
        }
      ],
      "name": "supportsInterface",
      "outputs": [
        {
          "internalType": "bool",
          "name": "",
          "type": "bool"
        }
      ],
      "stateMutability": "view",
      "type": "function",
      "constant": true
    },
    {
      "inputs": [],
      "name": "symbol",
      "outputs": [
        {
          "internalType": "string",
          "name": "",
          "type": "string"
        }
      ],
      "stateMutability": "view",
      "type": "function",
      "constant": true
    },
    {
      "inputs": [
        {
          "internalType": "uint256",
          "name": "index",
          "type": "uint256"
        }
      ],
      "name": "tokenByIndex",
      "outputs": [
        {
          "internalType": "uint256",
          "name": "",
          "type": "uint256"
        }
      ],
      "stateMutability": "view",
      "type": "function",
      "constant": true
    },
    {
      "inputs": [
        {
          "internalType": "address",
          "name": "owner",
          "type": "address"
        },
        {
          "internalType": "uint256",
          "name": "index",
          "type": "uint256"
        }
      ],
      "name": "tokenOfOwnerByIndex",
      "outputs": [
        {
          "internalType": "uint256",
          "name": "",
          "type": "uint256"
        }
      ],
      "stateMutability": "view",
      "type": "function",
      "constant": true
    },
    {
      "inputs": [
        {
          "internalType": "uint256",
          "name": "tokenId",
          "type": "uint256"
        }
      ],
      "name": "tokenURI",
      "outputs": [
        {
          "internalType": "string",
          "name": "",
          "type": "string"
        }
      ],
      "stateMutability": "view",
      "type": "function",
      "constant": true
    },
    {
      "inputs": [],
      "name": "totalSupply",
      "outputs": [
        {
          "internalType": "uint256",
          "name": "",
          "type": "uint256"
        }
      ],
      "stateMutability": "view",
      "type": "function",
      "constant": true
    },
    {
      "inputs": [
        {
          "internalType": "address",
          "name": "from",
          "type": "address"
        },
        {
          "internalType": "address",
          "name": "to",
          "type": "address"
        },
        {
          "internalType": "uint256",
          "name": "tokenId",
          "type": "uint256"
        }
      ],
      "name": "transferFrom",
      "outputs": [],
      "stateMutability": "nonpayable",
      "type": "function"
    },
    {
      "inputs": [
        {
          "internalType": "string",
          "name": "_color",
          "type": "string"
        }
      ],
      "name": "mint",
      "outputs": [],
      "stateMutability": "nonpayable",
      "type": "function"
    }
  ],
  "bytecode": "0x60806040523480156200001157600080fd5b506040518060400160405280600581526020017f436f6c6f720000000000000000000000000000000000000000000000000000008152506040518060400160405280600581526020017f434f4c4f52000000000000000000000000000000000000000000000000000000815250816000908051906020019062000096929190620000b8565b508060019080519060200190620000af929190620000b8565b505050620001cd565b828054620000c69062000197565b90600052602060002090601f016020900481019282620000ea576000855562000136565b82601f106200010557805160ff191683800117855562000136565b8280016001018555821562000136579182015b828111156200013557825182559160200191906001019062000118565b5b50905062000145919062000149565b5090565b5b80821115620001645760008160009055506001016200014a565b5090565b7f4e487b7100000000000000000000000000000000000000000000000000000000600052602260045260246000fd5b60006002820490506001821680620001b057607f821691505b60208210811415620001c757620001c662000168565b5b50919050565b61323980620001dd6000396000f3fe608060405234801561001057600080fd5b50600436106101165760003560e01c80636352211e116100a2578063b88d4fde11610071578063b88d4fde14610305578063bd11f69d14610321578063c87b56dd14610351578063d85d3d2714610381578063e985e9c51461039d57610116565b80636352211e1461026b57806370a082311461029b57806395d89b41146102cb578063a22cb465146102e957610116565b806318160ddd116100e957806318160ddd146101b557806323b872dd146101d35780632f745c59146101ef57806342842e0e1461021f5780634f6ccce71461023b57610116565b806301ffc9a71461011b57806306fdde031461014b578063081812fc14610169578063095ea7b314610199575b600080fd5b61013560048036038101906101309190611efc565b6103cd565b6040516101429190611f44565b60405180910390f35b610153610447565b6040516101609190611ff8565b60405180910390f35b610183600480360381019061017e9190612050565b6104d9565b60405161019091906120be565b60405180910390f35b6101b360048036038101906101ae9190612105565b61055e565b005b6101bd610676565b6040516101ca9190612154565b60405180910390f35b6101ed60048036038101906101e8919061216f565b610683565b005b61020960048036038101906102049190612105565b6106e3565b6040516102169190612154565b60405180910390f35b6102396004803603810190610234919061216f565b610788565b005b61025560048036038101906102509190612050565b6107a8565b6040516102629190612154565b60405180910390f35b61028560048036038101906102809190612050565b610819565b60405161029291906120be565b60405180910390f35b6102b560048036038101906102b091906121c2565b6108cb565b6040516102c29190612154565b60405180910390f35b6102d3610983565b6040516102e09190611ff8565b60405180910390f35b61030360048036038101906102fe919061221b565b610a15565b005b61031f600480360381019061031a9190612390565b610a2b565b005b61033b60048036038101906103369190612050565b610a8d565b6040516103489190611ff8565b60405180910390f35b61036b60048036038101906103669190612050565b610b39565b6040516103789190611ff8565b60405180910390f35b61039b600480360381019061039691906124b4565b610be0565b005b6103b760048036038101906103b291906124fd565b610cdd565b6040516103c49190611f44565b60405180910390f35b60007f780e9d63000000000000000000000000000000000000000000000000000000007bffffffffffffffffffffffffffffffffffffffffffffffffffffffff1916827bffffffffffffffffffffffffffffffffffffffffffffffffffffffff19161480610440575061043f82610d71565b5b9050919050565b6060600080546104569061256c565b80601f01602080910402602001604051908101604052809291908181526020018280546104829061256c565b80156104cf5780601f106104a4576101008083540402835291602001916104cf565b820191906000526020600020905b8154815290600101906020018083116104b257829003601f168201915b5050505050905090565b60006104e482610e53565b610523576040517f08c379a000000000000000000000000000000000000000000000000000000000815260040161051a90612610565b60405180910390fd5b6004600083815260200190815260200160002060009054906101000a900473ffffffffffffffffffffffffffffffffffffffff169050919050565b600061056982610819565b90508073ffffffffffffffffffffffffffffffffffffffff168373ffffffffffffffffffffffffffffffffffffffff1614156105da576040517f08c379a00000000000000000000000000000000000000000000000000000000081526004016105d1906126a2565b60405180910390fd5b8073ffffffffffffffffffffffffffffffffffffffff166105f9610ebf565b73ffffffffffffffffffffffffffffffffffffffff161480610628575061062781610622610ebf565b610cdd565b5b610667576040517f08c379a000000000000000000000000000000000000000000000000000000000815260040161065e90612734565b60405180910390fd5b6106718383610ec7565b505050565b6000600880549050905090565b61069461068e610ebf565b82610f80565b6106d3576040517f08c379a00000000000000000000000000000000000000000000000000000000081526004016106ca906127c6565b60405180910390fd5b6106de83838361105e565b505050565b60006106ee836108cb565b821061072f576040517f08c379a000000000000000000000000000000000000000000000000000000000815260040161072690612858565b60405180910390fd5b600660008473ffffffffffffffffffffffffffffffffffffffff1673ffffffffffffffffffffffffffffffffffffffff168152602001908152602001600020600083815260200190815260200160002054905092915050565b6107a383838360405180602001604052806000815250610a2b565b505050565b60006107b2610676565b82106107f3576040517f08c379a00000000000000000000000000000000000000000000000000000000081526004016107ea906128ea565b60405180910390fd5b600882815481106108075761080661290a565b5b90600052602060002001549050919050565b6000806002600084815260200190815260200160002060009054906101000a900473ffffffffffffffffffffffffffffffffffffffff169050600073ffffffffffffffffffffffffffffffffffffffff168173ffffffffffffffffffffffffffffffffffffffff1614156108c2576040517f08c379a00000000000000000000000000000000000000000000000000000000081526004016108b9906129ab565b60405180910390fd5b80915050919050565b60008073ffffffffffffffffffffffffffffffffffffffff168273ffffffffffffffffffffffffffffffffffffffff16141561093c576040517f08c379a000000000000000000000000000000000000000000000000000000000815260040161093390612a3d565b60405180910390fd5b600360008373ffffffffffffffffffffffffffffffffffffffff1673ffffffffffffffffffffffffffffffffffffffff168152602001908152602001600020549050919050565b6060600180546109929061256c565b80601f01602080910402602001604051908101604052809291908181526020018280546109be9061256c565b8015610a0b5780601f106109e057610100808354040283529160200191610a0b565b820191906000526020600020905b8154815290600101906020018083116109ee57829003601f168201915b5050505050905090565b610a27610a20610ebf565b83836112ba565b5050565b610a3c610a36610ebf565b83610f80565b610a7b576040517f08c379a0000000000000000000000000000000000000000000000000000000008152600401610a72906127c6565b60405180910390fd5b610a8784848484611427565b50505050565b600a8181548110610a9d57600080fd5b906000526020600020016000915090508054610ab89061256c565b80601f0160208091040260200160405190810160405280929190818152602001828054610ae49061256c565b8015610b315780601f10610b0657610100808354040283529160200191610b31565b820191906000526020600020905b815481529060010190602001808311610b1457829003601f168201915b505050505081565b6060610b4482610e53565b610b83576040517f08c379a0000000000000000000000000000000000000000000000000000000008152600401610b7a90612acf565b60405180910390fd5b6000610b8d611483565b90506000815111610bad5760405180602001604052806000815250610bd8565b80610bb78461149a565b604051602001610bc8929190612b2b565b6040516020818303038152906040525b915050919050565b60001515600b82604051610bf49190612b4f565b908152602001604051809103902060009054906101000a900460ff16151514610c52576040517f08c379a0000000000000000000000000000000000000000000000000000000008152600401610c4990612bb2565b60405180910390fd5b600a81908060018154018082558091505060019003906000526020600020016000909190919091509080519060200190610c8d929190611ded565b506000600a805490509050610ca233826115fb565b6001600b83604051610cb49190612b4f565b908152602001604051809103902060006101000a81548160ff0219169083151502179055505050565b6000600560008473ffffffffffffffffffffffffffffffffffffffff1673ffffffffffffffffffffffffffffffffffffffff16815260200190815260200160002060008373ffffffffffffffffffffffffffffffffffffffff1673ffffffffffffffffffffffffffffffffffffffff16815260200190815260200160002060009054906101000a900460ff16905092915050565b60007f80ac58cd000000000000000000000000000000000000000000000000000000007bffffffffffffffffffffffffffffffffffffffffffffffffffffffff1916827bffffffffffffffffffffffffffffffffffffffffffffffffffffffff19161480610e3c57507f5b5e139f000000000000000000000000000000000000000000000000000000007bffffffffffffffffffffffffffffffffffffffffffffffffffffffff1916827bffffffffffffffffffffffffffffffffffffffffffffffffffffffff1916145b80610e4c5750610e4b826117c9565b5b9050919050565b60008073ffffffffffffffffffffffffffffffffffffffff166002600084815260200190815260200160002060009054906101000a900473ffffffffffffffffffffffffffffffffffffffff1673ffffffffffffffffffffffffffffffffffffffff1614159050919050565b600033905090565b816004600083815260200190815260200160002060006101000a81548173ffffffffffffffffffffffffffffffffffffffff021916908373ffffffffffffffffffffffffffffffffffffffff160217905550808273ffffffffffffffffffffffffffffffffffffffff16610f3a83610819565b73ffffffffffffffffffffffffffffffffffffffff167f8c5be1e5ebec7d5bd14f71427d1e84f3dd0314c0f7b2291e5b200ac8c7c3b92560405160405180910390a45050565b6000610f8b82610e53565b610fca576040517f08c379a0000000000000000000000000000000000000000000000000000000008152600401610fc190612c44565b60405180910390fd5b6000610fd583610819565b90508073ffffffffffffffffffffffffffffffffffffffff168473ffffffffffffffffffffffffffffffffffffffff16148061104457508373ffffffffffffffffffffffffffffffffffffffff1661102c846104d9565b73ffffffffffffffffffffffffffffffffffffffff16145b8061105557506110548185610cdd565b5b91505092915050565b8273ffffffffffffffffffffffffffffffffffffffff1661107e82610819565b73ffffffffffffffffffffffffffffffffffffffff16146110d4576040517f08c379a00000000000000000000000000000000000000000000000000000000081526004016110cb90612cd6565b60405180910390fd5b600073ffffffffffffffffffffffffffffffffffffffff168273ffffffffffffffffffffffffffffffffffffffff161415611144576040517f08c379a000000000000000000000000000000000000000000000000000000000815260040161113b90612d68565b60405180910390fd5b61114f838383611833565b61115a600082610ec7565b6001600360008573ffffffffffffffffffffffffffffffffffffffff1673ffffffffffffffffffffffffffffffffffffffff16815260200190815260200160002060008282546111aa9190612db7565b925050819055506001600360008473ffffffffffffffffffffffffffffffffffffffff1673ffffffffffffffffffffffffffffffffffffffff16815260200190815260200160002060008282546112019190612deb565b92505081905550816002600083815260200190815260200160002060006101000a81548173ffffffffffffffffffffffffffffffffffffffff021916908373ffffffffffffffffffffffffffffffffffffffff160217905550808273ffffffffffffffffffffffffffffffffffffffff168473ffffffffffffffffffffffffffffffffffffffff167fddf252ad1be2c89b69c2b068fc378daa952ba7f163c4a11628f55a4df523b3ef60405160405180910390a4505050565b8173ffffffffffffffffffffffffffffffffffffffff168373ffffffffffffffffffffffffffffffffffffffff161415611329576040517f08c379a000000000000000000000000000000000000000000000000000000000815260040161132090612e8d565b60405180910390fd5b80600560008573ffffffffffffffffffffffffffffffffffffffff1673ffffffffffffffffffffffffffffffffffffffff16815260200190815260200160002060008473ffffffffffffffffffffffffffffffffffffffff1673ffffffffffffffffffffffffffffffffffffffff16815260200190815260200160002060006101000a81548160ff0219169083151502179055508173ffffffffffffffffffffffffffffffffffffffff168373ffffffffffffffffffffffffffffffffffffffff167f17307eab39ab6107e8899845ad3d59bd9653f200f220920489ca2b5937696c318360405161141a9190611f44565b60405180910390a3505050565b61143284848461105e565b61143e84848484611947565b61147d576040517f08c379a000000000000000000000000000000000000000000000000000000000815260040161147490612f1f565b60405180910390fd5b50505050565b606060405180602001604052806000815250905090565b606060008214156114e2576040518060400160405280600181526020017f300000000000000000000000000000000000000000000000000000000000000081525090506115f6565b600082905060005b600082146115145780806114fd90612f3f565b915050600a8261150d9190612fb7565b91506114ea565b60008167ffffffffffffffff8111156115305761152f612265565b5b6040519080825280601f01601f1916602001820160405280156115625781602001600182028036833780820191505090505b5090505b600085146115ef5760018261157b9190612db7565b9150600a8561158a9190612fe8565b60306115969190612deb565b60f81b8183815181106115ac576115ab61290a565b5b60200101907effffffffffffffffffffffffffffffffffffffffffffffffffffffffffffff1916908160001a905350600a856115e89190612fb7565b9450611566565b8093505050505b919050565b600073ffffffffffffffffffffffffffffffffffffffff168273ffffffffffffffffffffffffffffffffffffffff16141561166b576040517f08c379a000000000000000000000000000000000000000000000000000000000815260040161166290613065565b60405180910390fd5b61167481610e53565b156116b4576040517f08c379a00000000000000000000000000000000000000000000000000000000081526004016116ab906130d1565b60405180910390fd5b6116c060008383611833565b6001600360008473ffffffffffffffffffffffffffffffffffffffff1673ffffffffffffffffffffffffffffffffffffffff16815260200190815260200160002060008282546117109190612deb565b92505081905550816002600083815260200190815260200160002060006101000a81548173ffffffffffffffffffffffffffffffffffffffff021916908373ffffffffffffffffffffffffffffffffffffffff160217905550808273ffffffffffffffffffffffffffffffffffffffff16600073ffffffffffffffffffffffffffffffffffffffff167fddf252ad1be2c89b69c2b068fc378daa952ba7f163c4a11628f55a4df523b3ef60405160405180910390a45050565b60007f01ffc9a7000000000000000000000000000000000000000000000000000000007bffffffffffffffffffffffffffffffffffffffffffffffffffffffff1916827bffffffffffffffffffffffffffffffffffffffffffffffffffffffff1916149050919050565b61183e838383611acf565b600073ffffffffffffffffffffffffffffffffffffffff168373ffffffffffffffffffffffffffffffffffffffff1614156118815761187c81611ad4565b6118c0565b8173ffffffffffffffffffffffffffffffffffffffff168373ffffffffffffffffffffffffffffffffffffffff16146118bf576118be8382611b1d565b5b5b600073ffffffffffffffffffffffffffffffffffffffff168273ffffffffffffffffffffffffffffffffffffffff161415611903576118fe81611c8a565b611942565b8273ffffffffffffffffffffffffffffffffffffffff168273ffffffffffffffffffffffffffffffffffffffff1614611941576119408282611d5b565b5b5b505050565b60006119688473ffffffffffffffffffffffffffffffffffffffff16611dda565b15611ac2578373ffffffffffffffffffffffffffffffffffffffff1663150b7a02611991610ebf565b8786866040518563ffffffff1660e01b81526004016119b39493929190613146565b6020604051808303816000875af19250505080156119ef57506040513d601f19601f820116820180604052508101906119ec91906131a7565b60015b611a72573d8060008114611a1f576040519150601f19603f3d011682016040523d82523d6000602084013e611a24565b606091505b50600081511415611a6a576040517f08c379a0000000000000000000000000000000000000000000000000000000008152600401611a6190612f1f565b60405180910390fd5b805181602001fd5b63150b7a0260e01b7bffffffffffffffffffffffffffffffffffffffffffffffffffffffff1916817bffffffffffffffffffffffffffffffffffffffffffffffffffffffff191614915050611ac7565b600190505b949350505050565b505050565b6008805490506009600083815260200190815260200160002081905550600881908060018154018082558091505060019003906000526020600020016000909190919091505550565b60006001611b2a846108cb565b611b349190612db7565b9050600060076000848152602001908152602001600020549050818114611c19576000600660008673ffffffffffffffffffffffffffffffffffffffff1673ffffffffffffffffffffffffffffffffffffffff168152602001908152602001600020600084815260200190815260200160002054905080600660008773ffffffffffffffffffffffffffffffffffffffff1673ffffffffffffffffffffffffffffffffffffffff168152602001908152602001600020600084815260200190815260200160002081905550816007600083815260200190815260200160002081905550505b6007600084815260200190815260200160002060009055600660008573ffffffffffffffffffffffffffffffffffffffff1673ffffffffffffffffffffffffffffffffffffffff16815260200190815260200160002060008381526020019081526020016000206000905550505050565b60006001600880549050611c9e9190612db7565b9050600060096000848152602001908152602001600020549050600060088381548110611cce57611ccd61290a565b5b906000526020600020015490508060088381548110611cf057611cef61290a565b5b906000526020600020018190555081600960008381526020019081526020016000208190555060096000858152602001908152602001600020600090556008805480611d3f57611d3e6131d4565b5b6001900381819060005260206000200160009055905550505050565b6000611d66836108cb565b905081600660008573ffffffffffffffffffffffffffffffffffffffff1673ffffffffffffffffffffffffffffffffffffffff168152602001908152602001600020600083815260200190815260200160002081905550806007600084815260200190815260200160002081905550505050565b600080823b905060008111915050919050565b828054611df99061256c565b90600052602060002090601f016020900481019282611e1b5760008555611e62565b82601f10611e3457805160ff1916838001178555611e62565b82800160010185558215611e62579182015b82811115611e61578251825591602001919060010190611e46565b5b509050611e6f9190611e73565b5090565b5b80821115611e8c576000816000905550600101611e74565b5090565b6000604051905090565b600080fd5b600080fd5b60007fffffffff0000000000000000000000000000000000000000000000000000000082169050919050565b611ed981611ea4565b8114611ee457600080fd5b50565b600081359050611ef681611ed0565b92915050565b600060208284031215611f1257611f11611e9a565b5b6000611f2084828501611ee7565b91505092915050565b60008115159050919050565b611f3e81611f29565b82525050565b6000602082019050611f596000830184611f35565b92915050565b600081519050919050565b600082825260208201905092915050565b60005b83811015611f99578082015181840152602081019050611f7e565b83811115611fa8576000848401525b50505050565b6000601f19601f8301169050919050565b6000611fca82611f5f565b611fd48185611f6a565b9350611fe4818560208601611f7b565b611fed81611fae565b840191505092915050565b600060208201905081810360008301526120128184611fbf565b905092915050565b6000819050919050565b61202d8161201a565b811461203857600080fd5b50565b60008135905061204a81612024565b92915050565b60006020828403121561206657612065611e9a565b5b60006120748482850161203b565b91505092915050565b600073ffffffffffffffffffffffffffffffffffffffff82169050919050565b60006120a88261207d565b9050919050565b6120b88161209d565b82525050565b60006020820190506120d360008301846120af565b92915050565b6120e28161209d565b81146120ed57600080fd5b50565b6000813590506120ff816120d9565b92915050565b6000806040838503121561211c5761211b611e9a565b5b600061212a858286016120f0565b925050602061213b8582860161203b565b9150509250929050565b61214e8161201a565b82525050565b60006020820190506121696000830184612145565b92915050565b60008060006060848603121561218857612187611e9a565b5b6000612196868287016120f0565b93505060206121a7868287016120f0565b92505060406121b88682870161203b565b9150509250925092565b6000602082840312156121d8576121d7611e9a565b5b60006121e6848285016120f0565b91505092915050565b6121f881611f29565b811461220357600080fd5b50565b600081359050612215816121ef565b92915050565b6000806040838503121561223257612231611e9a565b5b6000612240858286016120f0565b925050602061225185828601612206565b9150509250929050565b600080fd5b600080fd5b7f4e487b7100000000000000000000000000000000000000000000000000000000600052604160045260246000fd5b61229d82611fae565b810181811067ffffffffffffffff821117156122bc576122bb612265565b5b80604052505050565b60006122cf611e90565b90506122db8282612294565b919050565b600067ffffffffffffffff8211156122fb576122fa612265565b5b61230482611fae565b9050602081019050919050565b82818337600083830152505050565b600061233361232e846122e0565b6122c5565b90508281526020810184848401111561234f5761234e612260565b5b61235a848285612311565b509392505050565b600082601f8301126123775761237661225b565b5b8135612387848260208601612320565b91505092915050565b600080600080608085870312156123aa576123a9611e9a565b5b60006123b8878288016120f0565b94505060206123c9878288016120f0565b93505060406123da8782880161203b565b925050606085013567ffffffffffffffff8111156123fb576123fa611e9f565b5b61240787828801612362565b91505092959194509250565b600067ffffffffffffffff82111561242e5761242d612265565b5b61243782611fae565b9050602081019050919050565b600061245761245284612413565b6122c5565b90508281526020810184848401111561247357612472612260565b5b61247e848285612311565b509392505050565b600082601f83011261249b5761249a61225b565b5b81356124ab848260208601612444565b91505092915050565b6000602082840312156124ca576124c9611e9a565b5b600082013567ffffffffffffffff8111156124e8576124e7611e9f565b5b6124f484828501612486565b91505092915050565b6000806040838503121561251457612513611e9a565b5b6000612522858286016120f0565b9250506020612533858286016120f0565b9150509250929050565b7f4e487b7100000000000000000000000000000000000000000000000000000000600052602260045260246000fd5b6000600282049050600182168061258457607f821691505b602082108114156125985761259761253d565b5b50919050565b7f4552433732313a20617070726f76656420717565727920666f72206e6f6e657860008201527f697374656e7420746f6b656e0000000000000000000000000000000000000000602082015250565b60006125fa602c83611f6a565b91506126058261259e565b604082019050919050565b60006020820190508181036000830152612629816125ed565b9050919050565b7f4552433732313a20617070726f76616c20746f2063757272656e74206f776e6560008201527f7200000000000000000000000000000000000000000000000000000000000000602082015250565b600061268c602183611f6a565b915061269782612630565b604082019050919050565b600060208201905081810360008301526126bb8161267f565b9050919050565b7f4552433732313a20617070726f76652063616c6c6572206973206e6f74206f7760008201527f6e6572206e6f7220617070726f76656420666f7220616c6c0000000000000000602082015250565b600061271e603883611f6a565b9150612729826126c2565b604082019050919050565b6000602082019050818103600083015261274d81612711565b9050919050565b7f4552433732313a207472616e736665722063616c6c6572206973206e6f74206f60008201527f776e6572206e6f7220617070726f766564000000000000000000000000000000602082015250565b60006127b0603183611f6a565b91506127bb82612754565b604082019050919050565b600060208201905081810360008301526127df816127a3565b9050919050565b7f455243373231456e756d657261626c653a206f776e657220696e646578206f7560008201527f74206f6620626f756e6473000000000000000000000000000000000000000000602082015250565b6000612842602b83611f6a565b915061284d826127e6565b604082019050919050565b6000602082019050818103600083015261287181612835565b9050919050565b7f455243373231456e756d657261626c653a20676c6f62616c20696e646578206f60008201527f7574206f6620626f756e64730000000000000000000000000000000000000000602082015250565b60006128d4602c83611f6a565b91506128df82612878565b604082019050919050565b60006020820190508181036000830152612903816128c7565b9050919050565b7f4e487b7100000000000000000000000000000000000000000000000000000000600052603260045260246000fd5b7f4552433732313a206f776e657220717565727920666f72206e6f6e657869737460008201527f656e7420746f6b656e0000000000000000000000000000000000000000000000602082015250565b6000612995602983611f6a565b91506129a082612939565b604082019050919050565b600060208201905081810360008301526129c481612988565b9050919050565b7f4552433732313a2062616c616e636520717565727920666f7220746865207a6560008201527f726f206164647265737300000000000000000000000000000000000000000000602082015250565b6000612a27602a83611f6a565b9150612a32826129cb565b604082019050919050565b60006020820190508181036000830152612a5681612a1a565b9050919050565b7f4552433732314d657461646174613a2055524920717565727920666f72206e6f60008201527f6e6578697374656e7420746f6b656e0000000000000000000000000000000000602082015250565b6000612ab9602f83611f6a565b9150612ac482612a5d565b604082019050919050565b60006020820190508181036000830152612ae881612aac565b9050919050565b600081905092915050565b6000612b0582611f5f565b612b0f8185612aef565b9350612b1f818560208601611f7b565b80840191505092915050565b6000612b378285612afa565b9150612b438284612afa565b91508190509392505050565b6000612b5b8284612afa565b915081905092915050565b7f436f6c6f7220616c726561647920657869737473000000000000000000000000600082015250565b6000612b9c601483611f6a565b9150612ba782612b66565b602082019050919050565b60006020820190508181036000830152612bcb81612b8f565b9050919050565b7f4552433732313a206f70657261746f7220717565727920666f72206e6f6e657860008201527f697374656e7420746f6b656e0000000000000000000000000000000000000000602082015250565b6000612c2e602c83611f6a565b9150612c3982612bd2565b604082019050919050565b60006020820190508181036000830152612c5d81612c21565b9050919050565b7f4552433732313a207472616e73666572206f6620746f6b656e2074686174206960008201527f73206e6f74206f776e0000000000000000000000000000000000000000000000602082015250565b6000612cc0602983611f6a565b9150612ccb82612c64565b604082019050919050565b60006020820190508181036000830152612cef81612cb3565b9050919050565b7f4552433732313a207472616e7366657220746f20746865207a65726f2061646460008201527f7265737300000000000000000000000000000000000000000000000000000000602082015250565b6000612d52602483611f6a565b9150612d5d82612cf6565b604082019050919050565b60006020820190508181036000830152612d8181612d45565b9050919050565b7f4e487b7100000000000000000000000000000000000000000000000000000000600052601160045260246000fd5b6000612dc28261201a565b9150612dcd8361201a565b925082821015612de057612ddf612d88565b5b828203905092915050565b6000612df68261201a565b9150612e018361201a565b9250827fffffffffffffffffffffffffffffffffffffffffffffffffffffffffffffffff03821115612e3657612e35612d88565b5b828201905092915050565b7f4552433732313a20617070726f766520746f2063616c6c657200000000000000600082015250565b6000612e77601983611f6a565b9150612e8282612e41565b602082019050919050565b60006020820190508181036000830152612ea681612e6a565b9050919050565b7f4552433732313a207472616e7366657220746f206e6f6e20455243373231526560008201527f63656976657220696d706c656d656e7465720000000000000000000000000000602082015250565b6000612f09603283611f6a565b9150612f1482612ead565b604082019050919050565b60006020820190508181036000830152612f3881612efc565b9050919050565b6000612f4a8261201a565b91507fffffffffffffffffffffffffffffffffffffffffffffffffffffffffffffffff821415612f7d57612f7c612d88565b5b600182019050919050565b7f4e487b7100000000000000000000000000000000000000000000000000000000600052601260045260246000fd5b6000612fc28261201a565b9150612fcd8361201a565b925082612fdd57612fdc612f88565b5b828204905092915050565b6000612ff38261201a565b9150612ffe8361201a565b92508261300e5761300d612f88565b5b828206905092915050565b7f4552433732313a206d696e7420746f20746865207a65726f2061646472657373600082015250565b600061304f602083611f6a565b915061305a82613019565b602082019050919050565b6000602082019050818103600083015261307e81613042565b9050919050565b7f4552433732313a20746f6b656e20616c7265616479206d696e74656400000000600082015250565b60006130bb601c83611f6a565b91506130c682613085565b602082019050919050565b600060208201905081810360008301526130ea816130ae565b9050919050565b600081519050919050565b600082825260208201905092915050565b6000613118826130f1565b61312281856130fc565b9350613132818560208601611f7b565b61313b81611fae565b840191505092915050565b600060808201905061315b60008301876120af565b61316860208301866120af565b6131756040830185612145565b8181036060830152613187818461310d565b905095945050505050565b6000815190506131a181611ed0565b92915050565b6000602082840312156131bd576131bc611e9a565b5b60006131cb84828501613192565b91505092915050565b7f4e487b7100000000000000000000000000000000000000000000000000000000600052603160045260246000fdfea2646970667358221220cf549dca1a380abc3274abd3b4e911b37030c20d2dd5dfaf5a9e996ae18a125264736f6c634300080b0033",
  "immutableReferences": {},
  "source": "// SPDX-License-Identifier: MIT\r\n\r\npragma solidity >=0.4.22 <0.9.0;\r\n\r\nimport \"../../../node_modules/@openzeppelin/contracts/token/ERC721/extensions/ERC721Enumerable.sol\";\r\n\r\ncontract Color is ERC721Enumerable {\r\n    string [] public colors;\r\n    mapping (string => bool) _colorExists;\r\n\r\n    constructor () ERC721(\"Color\", \"COLOR\") { }\r\n\r\n    // Mintea un color\r\n    function mint(string memory _color) public {\r\n        // Requerimos que el token no exista\r\n        require(_colorExists[_color] == false, \"Color already exists\");\r\n\r\n        // Lo aadimos a nuestro array de colores\r\n        colors.push(_color);\r\n\r\n        // El id ser la longitud del array\r\n        uint _tokenId = colors.length;\r\n        \r\n        // Minteamos el token con la funcin mint del contrato ERC721 _mint(address to, unint256 tokenId)\r\n        _mint(msg.sender, _tokenId);\r\n        // Lo aadimos al mapping de existencia\r\n        _colorExists[_color] = true;\r\n    }\r\n}",
  "sourcePath": "/mnt/c/Users/newton/Desktop/Oscar/learning-dapps/4. Tokens NFT (ERC 721)/4.3. DApp con tokens nft/dapp-nft/src/truffle/contracts/Color.sol",
  "compiler": {
    "name": "solc",
    "version": "0.8.11+commit.d7f03943.Emscripten.clang"
  },
  "schemaVersion": "3.4.4",
  "updatedAt": "2022-01-24T13:07:30.489Z",
  "networkType": "ethereum",
  "devdoc": {
    "kind": "dev",
    "methods": {
      "approve(address,uint256)": {
        "details": "See {IERC721-approve}."
      },
      "balanceOf(address)": {
        "details": "See {IERC721-balanceOf}."
      },
      "getApproved(uint256)": {
        "details": "See {IERC721-getApproved}."
      },
      "isApprovedForAll(address,address)": {
        "details": "See {IERC721-isApprovedForAll}."
      },
      "name()": {
        "details": "See {IERC721Metadata-name}."
      },
      "ownerOf(uint256)": {
        "details": "See {IERC721-ownerOf}."
      },
      "safeTransferFrom(address,address,uint256)": {
        "details": "See {IERC721-safeTransferFrom}."
      },
      "safeTransferFrom(address,address,uint256,bytes)": {
        "details": "See {IERC721-safeTransferFrom}."
      },
      "setApprovalForAll(address,bool)": {
        "details": "See {IERC721-setApprovalForAll}."
      },
      "supportsInterface(bytes4)": {
        "details": "See {IERC165-supportsInterface}."
      },
      "symbol()": {
        "details": "See {IERC721Metadata-symbol}."
      },
      "tokenByIndex(uint256)": {
        "details": "See {IERC721Enumerable-tokenByIndex}."
      },
      "tokenOfOwnerByIndex(address,uint256)": {
        "details": "See {IERC721Enumerable-tokenOfOwnerByIndex}."
      },
      "tokenURI(uint256)": {
        "details": "See {IERC721Metadata-tokenURI}."
      },
      "totalSupply()": {
        "details": "See {IERC721Enumerable-totalSupply}."
      },
      "transferFrom(address,address,uint256)": {
        "details": "See {IERC721-transferFrom}."
      }
    },
    "version": 1
  },
  "userdoc": {
    "kind": "user",
    "methods": {},
    "version": 1
  }
}