{
  "contractName": "Evaluaciones",
  "abi": [
    {
      "inputs": [],
      "stateMutability": "nonpayable",
      "type": "constructor"
    },
    {
      "anonymous": false,
      "inputs": [
        {
          "indexed": false,
          "internalType": "bytes32",
          "name": "",
          "type": "bytes32"
        }
      ],
      "name": "alumno_evaluado",
      "type": "event"
    },
    {
      "anonymous": false,
      "inputs": [
        {
          "indexed": false,
          "internalType": "string",
          "name": "",
          "type": "string"
        }
      ],
      "name": "revision_solicitada",
      "type": "event"
    },
    {
      "inputs": [],
      "name": "profesor",
      "outputs": [
        {
          "internalType": "address",
          "name": "",
          "type": "address"
        }
      ],
      "stateMutability": "view",
      "type": "function",
      "constant": true
    },
    {
      "inputs": [
        {
          "internalType": "string",
          "name": "_id",
          "type": "string"
        },
        {
          "internalType": "uint256",
          "name": "_nota",
          "type": "uint256"
        }
      ],
      "name": "evaluar",
      "outputs": [],
      "stateMutability": "nonpayable",
      "type": "function"
    },
    {
      "inputs": [
        {
          "internalType": "string",
          "name": "_id",
          "type": "string"
        }
      ],
      "name": "verNota",
      "outputs": [
        {
          "internalType": "uint256",
          "name": "",
          "type": "uint256"
        }
      ],
      "stateMutability": "view",
      "type": "function",
      "constant": true
    },
    {
      "inputs": [
        {
          "internalType": "string",
          "name": "_id",
          "type": "string"
        }
      ],
      "name": "solicitarRevision",
      "outputs": [],
      "stateMutability": "nonpayable",
      "type": "function"
    },
    {
      "inputs": [],
      "name": "verSolicitudesRevision",
      "outputs": [
        {
          "internalType": "string[]",
          "name": "",
          "type": "string[]"
        }
      ],
      "stateMutability": "view",
      "type": "function",
      "constant": true
    }
  ],
  "bytecode": "0x608060405234801561001057600080fd5b50336000806101000a81548173ffffffffffffffffffffffffffffffffffffffff021916908373ffffffffffffffffffffffffffffffffffffffff160217905550610b40806100606000396000f3fe608060405234801561001057600080fd5b50600436106100575760003560e01c8063242724fb1461005c578063383bebae1461007857806399f27ce614610094578063df096576146100b2578063faabc6d1146100d0575b600080fd5b61007660048036038101906100719190610657565b610100565b005b610092600480360381019061008d91906106d6565b610176565b005b61009c610285565b6040516100a9919061087c565b60405180910390f35b6100ba6103ee565b6040516100c791906108df565b60405180910390f35b6100ea60048036038101906100e59190610657565b610412565b6040516100f79190610909565b60405180910390f35b60028190806001815401808255809150506001900390600052602060002001600090919091909150908051906020019061013b92919061045a565b507f92e776160774a569e6eda5e1b21da12da019f8e098a18238bada8697cb70c78f8160405161016b919061096e565b60405180910390a150565b3360008054906101000a900473ffffffffffffffffffffffffffffffffffffffff1673ffffffffffffffffffffffffffffffffffffffff168173ffffffffffffffffffffffffffffffffffffffff1614610205576040517f08c379a00000000000000000000000000000000000000000000000000000000081526004016101fc90610a02565b60405180910390fd5b6000836040516020016102189190610a5e565b6040516020818303038152906040528051906020012090508260016000838152602001908152602001600020819055507f9129eeeb684507aca017f10030b70e5bf86d129f417fcc5840348a957eb12cee816040516102779190610a8e565b60405180910390a150505050565b60603360008054906101000a900473ffffffffffffffffffffffffffffffffffffffff1673ffffffffffffffffffffffffffffffffffffffff168173ffffffffffffffffffffffffffffffffffffffff1614610316576040517f08c379a000000000000000000000000000000000000000000000000000000000815260040161030d90610a02565b60405180910390fd5b6002805480602002602001604051908101604052809291908181526020016000905b828210156103e457838290600052602060002001805461035790610ad8565b80601f016020809104026020016040519081016040528092919081815260200182805461038390610ad8565b80156103d05780601f106103a5576101008083540402835291602001916103d0565b820191906000526020600020905b8154815290600101906020018083116103b357829003601f168201915b505050505081526020019060010190610338565b5050505091505090565b60008054906101000a900473ffffffffffffffffffffffffffffffffffffffff1681565b600080826040516020016104269190610a5e565b6040516020818303038152906040528051906020012090506001600082815260200190815260200160002054915050919050565b82805461046690610ad8565b90600052602060002090601f01602090048101928261048857600085556104cf565b82601f106104a157805160ff19168380011785556104cf565b828001600101855582156104cf579182015b828111156104ce5782518255916020019190600101906104b3565b5b5090506104dc91906104e0565b5090565b5b808211156104f95760008160009055506001016104e1565b5090565b6000604051905090565b600080fd5b600080fd5b600080fd5b600080fd5b6000601f19601f8301169050919050565b7f4e487b7100000000000000000000000000000000000000000000000000000000600052604160045260246000fd5b6105648261051b565b810181811067ffffffffffffffff821117156105835761058261052c565b5b80604052505050565b60006105966104fd565b90506105a2828261055b565b919050565b600067ffffffffffffffff8211156105c2576105c161052c565b5b6105cb8261051b565b9050602081019050919050565b82818337600083830152505050565b60006105fa6105f5846105a7565b61058c565b90508281526020810184848401111561061657610615610516565b5b6106218482856105d8565b509392505050565b600082601f83011261063e5761063d610511565b5b813561064e8482602086016105e7565b91505092915050565b60006020828403121561066d5761066c610507565b5b600082013567ffffffffffffffff81111561068b5761068a61050c565b5b61069784828501610629565b91505092915050565b6000819050919050565b6106b3816106a0565b81146106be57600080fd5b50565b6000813590506106d0816106aa565b92915050565b600080604083850312156106ed576106ec610507565b5b600083013567ffffffffffffffff81111561070b5761070a61050c565b5b61071785828601610629565b9250506020610728858286016106c1565b9150509250929050565b600081519050919050565b600082825260208201905092915050565b6000819050602082019050919050565b600081519050919050565b600082825260208201905092915050565b60005b8381101561079857808201518184015260208101905061077d565b838111156107a7576000848401525b50505050565b60006107b88261075e565b6107c28185610769565b93506107d281856020860161077a565b6107db8161051b565b840191505092915050565b60006107f283836107ad565b905092915050565b6000602082019050919050565b600061081282610732565b61081c818561073d565b93508360208202850161082e8561074e565b8060005b8581101561086a578484038952815161084b85826107e6565b9450610856836107fa565b925060208a01995050600181019050610832565b50829750879550505050505092915050565b600060208201905081810360008301526108968184610807565b905092915050565b600073ffffffffffffffffffffffffffffffffffffffff82169050919050565b60006108c98261089e565b9050919050565b6108d9816108be565b82525050565b60006020820190506108f460008301846108d0565b92915050565b610903816106a0565b82525050565b600060208201905061091e60008301846108fa565b92915050565b600082825260208201905092915050565b60006109408261075e565b61094a8185610924565b935061095a81856020860161077a565b6109638161051b565b840191505092915050565b600060208201905081810360008301526109888184610935565b905092915050565b7f536f6c6f20656c2070726f6665736f7220707565646520656a6563757461722060008201527f657374612066756e63696f6e0000000000000000000000000000000000000000602082015250565b60006109ec602c83610924565b91506109f782610990565b604082019050919050565b60006020820190508181036000830152610a1b816109df565b9050919050565b600081905092915050565b6000610a388261075e565b610a428185610a22565b9350610a5281856020860161077a565b80840191505092915050565b6000610a6a8284610a2d565b915081905092915050565b6000819050919050565b610a8881610a75565b82525050565b6000602082019050610aa36000830184610a7f565b92915050565b7f4e487b7100000000000000000000000000000000000000000000000000000000600052602260045260246000fd5b60006002820490506001821680610af057607f821691505b60208210811415610b0457610b03610aa9565b5b5091905056fea26469706673582212209210242e84fa97998ac4675197ee1c3ece56931f8ccfc16c573603a3bf10322a64736f6c634300080b0033",
  "immutableReferences": {},
  "source": "//SPDX-License-Identifier: MIT\r\n\r\npragma solidity >=0.4.4 <0.9.0;\r\npragma experimental ABIEncoderV2;\r\n\r\n/// @title Evaluaciones\r\n/// @author Oscar R.C.\r\n/// @notice Sistema de evaluaciones universitarias\r\n\r\ncontract Evaluaciones {\r\n    //Direccin del profesor que publica las notas\r\n    address public profesor;\r\n\r\n    //Mapping para relacionar hash de la identidad del alumno con su nota. As la identidad permanece privada.\r\n    mapping(bytes32 => uint) Notas;\r\n\r\n    //Array de strings (ID alumno) que solicitan revisin de examen\r\n    string [] Revisiones;\r\n\r\n    //Evento alumno evaluado. Devuelve el hash del alumno\r\n    event alumno_evaluado(bytes32);\r\n\r\n    //Evento que notifica la solicitud de revisin. Devuelve el ID del alumno\r\n    event revision_solicitada(string);\r\n\r\n    constructor() {\r\n        //Establecemos la direccin del profesor, en este caso el owner (quien despliega) el contrato\r\n        profesor = msg.sender;\r\n    }\r\n\r\n    //Modificador para permitir que solo el profesor ejecute una funcion\r\n    modifier SoloProfesor(address _direccion){\r\n        //Requerimos que la direccin pasada por parmetro coincida con el owner del contrato, definido en el constructor\r\n        require(_direccion == profesor, \"Solo el profesor puede ejecutar esta funcion\");\r\n        _;\r\n    }\r\n\r\n    //Funcin para evaluar a un alumno\r\n    function evaluar(string memory _id, uint _nota) public SoloProfesor(msg.sender){\r\n        //Obtenemos el hash del alumno\r\n        bytes32 hashAlumno = keccak256(abi.encodePacked(_id));\r\n\r\n        //Relacionamos el hash con la nota del alumno\r\n        Notas[hashAlumno] = _nota;\r\n\r\n        //Emitimos Evento\r\n        emit alumno_evaluado(hashAlumno);\r\n    }\r\n\r\n    //Funcin que permite a un alumno ver su nota\r\n    function verNota(string memory _id) public view returns(uint){\r\n        //Obtenemos el hash del alumno\r\n        bytes32 hashAlumno = keccak256(abi.encodePacked(_id));\r\n\r\n        //Devolvemos su nota del mapping Notas\r\n        return Notas[hashAlumno];\r\n    }\r\n\r\n    // Funcin para solicitar revisin de nota\r\n    function solicitarRevision(string memory _id) public{\r\n        //Aadimos el id del alumno al array de revisiones\r\n        Revisiones.push(_id);\r\n\r\n        //Lanzamos la notificacion\r\n        emit revision_solicitada(_id);\r\n    }\r\n\r\n    //Funcin que permite al profesor ver las revisiones solicitadas. Devuelve un array de strings\r\n    function verSolicitudesRevision() public view SoloProfesor(msg.sender) returns(string [] memory){\r\n        //Devolvemos el array de revisiones solicitadas\r\n        return Revisiones;\r\n    }\r\n}",
  "sourcePath": "/mnt/c/Users/Newton/Desktop/Oscar/learning-dapps/2. Truffle/2.2. Truffle con detalle/contracts/evaluaciones.sol",
  "compiler": {
    "name": "solc",
    "version": "0.8.11+commit.d7f03943.Emscripten.clang"
  },
  "schemaVersion": "3.4.4",
  "updatedAt": "2022-01-17T12:29:58.654Z",
  "networkType": "ethereum",
  "devdoc": {
    "author": "Oscar R.C.",
    "kind": "dev",
    "methods": {},
    "title": "Evaluaciones",
    "version": 1
  },
  "userdoc": {
    "kind": "user",
    "methods": {},
    "notice": "Sistema de evaluaciones universitarias",
    "version": 1
  }
}