{
  "contractName": "Evaluaciones",
  "abi": [
    {
      "inputs": [],
      "stateMutability": "nonpayable",
      "type": "constructor"
    },
    {
      "anonymous": false,
      "inputs": [
        {
          "indexed": false,
          "internalType": "bytes32",
          "name": "",
          "type": "bytes32"
        }
      ],
      "name": "alumno_evaluado",
      "type": "event"
    },
    {
      "anonymous": false,
      "inputs": [
        {
          "indexed": false,
          "internalType": "string",
          "name": "",
          "type": "string"
        }
      ],
      "name": "revision_solicitada",
      "type": "event"
    },
    {
      "inputs": [],
      "name": "profesor",
      "outputs": [
        {
          "internalType": "address",
          "name": "",
          "type": "address"
        }
      ],
      "stateMutability": "view",
      "type": "function"
    },
    {
      "inputs": [
        {
          "internalType": "string",
          "name": "_id",
          "type": "string"
        },
        {
          "internalType": "string",
          "name": "_asignatura",
          "type": "string"
        },
        {
          "internalType": "uint256",
          "name": "_nota",
          "type": "uint256"
        }
      ],
      "name": "evaluar",
      "outputs": [],
      "stateMutability": "nonpayable",
      "type": "function"
    },
    {
      "inputs": [
        {
          "internalType": "string",
          "name": "_id",
          "type": "string"
        },
        {
          "internalType": "string",
          "name": "_asignatura",
          "type": "string"
        }
      ],
      "name": "verNota",
      "outputs": [
        {
          "internalType": "uint256",
          "name": "",
          "type": "uint256"
        }
      ],
      "stateMutability": "view",
      "type": "function"
    },
    {
      "inputs": [
        {
          "internalType": "string",
          "name": "_id",
          "type": "string"
        },
        {
          "internalType": "string",
          "name": "_asignatura",
          "type": "string"
        }
      ],
      "name": "solicitarRevision",
      "outputs": [],
      "stateMutability": "nonpayable",
      "type": "function"
    },
    {
      "inputs": [
        {
          "internalType": "string",
          "name": "_asignatura",
          "type": "string"
        }
      ],
      "name": "verSolicitudesRevision",
      "outputs": [
        {
          "internalType": "string[]",
          "name": "",
          "type": "string[]"
        }
      ],
      "stateMutability": "view",
      "type": "function"
    }
  ],
  "bytecode": "0x608060405234801561001057600080fd5b50336000806101000a81548173ffffffffffffffffffffffffffffffffffffffff021916908373ffffffffffffffffffffffffffffffffffffffff160217905550610c5e806100606000396000f3fe608060405234801561001057600080fd5b50600436106100575760003560e01c806307dd2c3c1461005c57806315349c841461008c5780632071decd146100a85780637a044592146100c4578063df096576146100f4575b600080fd5b610076600480360381019061007191906106aa565b610112565b604051610083919061083d565b60405180910390f35b6100a660048036038101906100a19190610895565b610299565b005b6100c260048036038101906100bd9190610920565b6103ab565b005b6100de60048036038101906100d99190610920565b61043e565b6040516100eb91906109a7565b60405180910390f35b6100fc610489565b6040516101099190610a03565b60405180910390f35b60603360008054906101000a900473ffffffffffffffffffffffffffffffffffffffff1673ffffffffffffffffffffffffffffffffffffffff168173ffffffffffffffffffffffffffffffffffffffff16146101a3576040517f08c379a000000000000000000000000000000000000000000000000000000000815260040161019a90610aa1565b60405180910390fd5b6002836040516101b39190610afd565b9081526020016040518091039020805480602002602001604051908101604052809291908181526020016000905b8282101561028d57838290600052602060002001805461020090610b43565b80601f016020809104026020016040519081016040528092919081815260200182805461022c90610b43565b80156102795780601f1061024e57610100808354040283529160200191610279565b820191906000526020600020905b81548152906001019060200180831161025c57829003601f168201915b5050505050815260200190600101906101e1565b50505050915050919050565b3360008054906101000a900473ffffffffffffffffffffffffffffffffffffffff1673ffffffffffffffffffffffffffffffffffffffff168173ffffffffffffffffffffffffffffffffffffffff1614610328576040517f08c379a000000000000000000000000000000000000000000000000000000000815260040161031f90610aa1565b60405180910390fd5b6000848460405160200161033d929190610b75565b6040516020818303038152906040528051906020012090508260016000838152602001908152602001600020819055507f9129eeeb684507aca017f10030b70e5bf86d129f417fcc5840348a957eb12cee8160405161039c9190610bb2565b60405180910390a15050505050565b6002816040516103bb9190610afd565b9081526020016040518091039020829080600181540180825580915050600190039060005260206000200160009091909190915090805190602001906104029291906104ad565b507f92e776160774a569e6eda5e1b21da12da019f8e098a18238bada8697cb70c78f826040516104329190610c06565b60405180910390a15050565b6000808383604051602001610454929190610b75565b604051602081830303815290604052805190602001209050600160008281526020019081526020016000205491505092915050565b60008054906101000a900473ffffffffffffffffffffffffffffffffffffffff1681565b8280546104b990610b43565b90600052602060002090601f0160209004810192826104db5760008555610522565b82601f106104f457805160ff1916838001178555610522565b82800160010185558215610522579182015b82811115610521578251825591602001919060010190610506565b5b50905061052f9190610533565b5090565b5b8082111561054c576000816000905550600101610534565b5090565b6000604051905090565b600080fd5b600080fd5b600080fd5b600080fd5b6000601f19601f8301169050919050565b7f4e487b7100000000000000000000000000000000000000000000000000000000600052604160045260246000fd5b6105b78261056e565b810181811067ffffffffffffffff821117156105d6576105d561057f565b5b80604052505050565b60006105e9610550565b90506105f582826105ae565b919050565b600067ffffffffffffffff8211156106155761061461057f565b5b61061e8261056e565b9050602081019050919050565b82818337600083830152505050565b600061064d610648846105fa565b6105df565b90508281526020810184848401111561066957610668610569565b5b61067484828561062b565b509392505050565b600082601f83011261069157610690610564565b5b81356106a184826020860161063a565b91505092915050565b6000602082840312156106c0576106bf61055a565b5b600082013567ffffffffffffffff8111156106de576106dd61055f565b5b6106ea8482850161067c565b91505092915050565b600081519050919050565b600082825260208201905092915050565b6000819050602082019050919050565b600081519050919050565b600082825260208201905092915050565b60005b8381101561075957808201518184015260208101905061073e565b83811115610768576000848401525b50505050565b60006107798261071f565b610783818561072a565b935061079381856020860161073b565b61079c8161056e565b840191505092915050565b60006107b3838361076e565b905092915050565b6000602082019050919050565b60006107d3826106f3565b6107dd81856106fe565b9350836020820285016107ef8561070f565b8060005b8581101561082b578484038952815161080c85826107a7565b9450610817836107bb565b925060208a019950506001810190506107f3565b50829750879550505050505092915050565b6000602082019050818103600083015261085781846107c8565b905092915050565b6000819050919050565b6108728161085f565b811461087d57600080fd5b50565b60008135905061088f81610869565b92915050565b6000806000606084860312156108ae576108ad61055a565b5b600084013567ffffffffffffffff8111156108cc576108cb61055f565b5b6108d88682870161067c565b935050602084013567ffffffffffffffff8111156108f9576108f861055f565b5b6109058682870161067c565b925050604061091686828701610880565b9150509250925092565b600080604083850312156109375761093661055a565b5b600083013567ffffffffffffffff8111156109555761095461055f565b5b6109618582860161067c565b925050602083013567ffffffffffffffff8111156109825761098161055f565b5b61098e8582860161067c565b9150509250929050565b6109a18161085f565b82525050565b60006020820190506109bc6000830184610998565b92915050565b600073ffffffffffffffffffffffffffffffffffffffff82169050919050565b60006109ed826109c2565b9050919050565b6109fd816109e2565b82525050565b6000602082019050610a1860008301846109f4565b92915050565b600082825260208201905092915050565b7f536f6c6f20656c2070726f6665736f7220707565646520656a6563757461722060008201527f657374612066756e63696f6e0000000000000000000000000000000000000000602082015250565b6000610a8b602c83610a1e565b9150610a9682610a2f565b604082019050919050565b60006020820190508181036000830152610aba81610a7e565b9050919050565b600081905092915050565b6000610ad78261071f565b610ae18185610ac1565b9350610af181856020860161073b565b80840191505092915050565b6000610b098284610acc565b915081905092915050565b7f4e487b7100000000000000000000000000000000000000000000000000000000600052602260045260246000fd5b60006002820490506001821680610b5b57607f821691505b60208210811415610b6f57610b6e610b14565b5b50919050565b6000610b818285610acc565b9150610b8d8284610acc565b91508190509392505050565b6000819050919050565b610bac81610b99565b82525050565b6000602082019050610bc76000830184610ba3565b92915050565b6000610bd88261071f565b610be28185610a1e565b9350610bf281856020860161073b565b610bfb8161056e565b840191505092915050565b60006020820190508181036000830152610c208184610bcd565b90509291505056fea26469706673582212202c98b66dd46fb351396999d02430fef1ef7527822ab950636476a96dae8254e164736f6c634300080b0033",
  "immutableReferences": {},
  "source": "//SPDX-License-Identifier: MIT\r\n\r\npragma solidity >=0.4.4 <0.9.0;\r\npragma experimental ABIEncoderV2;\r\n\r\n/// @title Evaluaciones\r\n/// @author Oscar R.C.\r\n/// @notice Sistema de evaluaciones universitarias\r\n\r\ncontract Evaluaciones {\r\n    //Direccin del profesor que publica las notas\r\n    address public profesor;\r\n\r\n    //Mapping para relacionar hash de la identidad del alumno con su nota. As la identidad permanece privada.\r\n    mapping(bytes32 => uint) Notas;\r\n\r\n    //Array de strings (ID alumno) que solicitan revisin de examen\r\n    mapping(string => string []) Revisiones;\r\n\r\n    //Evento alumno evaluado. Devuelve el hash del alumno\r\n    event alumno_evaluado(bytes32);\r\n\r\n    //Evento que notifica la solicitud de revisin. Devuelve el ID del alumno\r\n    event revision_solicitada(string);\r\n\r\n    constructor() {\r\n        //Establecemos la direccin del profesor, en este caso el owner (quien despliega) el contrato\r\n        profesor = msg.sender;\r\n    }\r\n\r\n    //Modificador para permitir que solo el profesor ejecute una funcion\r\n    modifier SoloProfesor(address _direccion){\r\n        //Requerimos que la direccin pasada por parmetro coincida con el owner del contrato, definido en el constructor\r\n        require(_direccion == profesor, \"Solo el profesor puede ejecutar esta funcion\");\r\n        _;\r\n    }\r\n\r\n    //Funcin para evaluar a un alumno\r\n    function evaluar(string memory _id, string memory _asignatura, uint _nota) public SoloProfesor(msg.sender){\r\n        //Obtenemos el hash del alumno y asignatura\r\n        bytes32 hashNota = keccak256(abi.encodePacked(_id, _asignatura));\r\n\r\n        //Relacionamos el hash con la nota del alumno\r\n        Notas[hashNota] = _nota;\r\n\r\n        //Emitimos Evento\r\n        emit alumno_evaluado(hashNota);\r\n    }\r\n\r\n    //Funcin que permite a un alumno ver su nota\r\n    function verNota(string memory _id, string memory _asignatura) public view returns(uint){\r\n        //Obtenemos hash de id y asignatura\r\n        bytes32 hashNota = keccak256(abi.encodePacked(_id, _asignatura));\r\n\r\n        //Devolvemos su nota del mapping Notas\r\n        return Notas[hashNota];\r\n    }\r\n\r\n    // Funcin para solicitar revisin de nota\r\n    function solicitarRevision(string memory _id, string memory _asignatura) public{\r\n        //Aadimos el id del alumno al array de revisiones\r\n        Revisiones[_asignatura].push(_id);\r\n\r\n        //Lanzamos la notificacion\r\n        emit revision_solicitada(_id);\r\n    }\r\n\r\n    //Funcin que permite al profesor ver las revisiones solicitadas para una asignatura. Devuelve un array de strings\r\n    function verSolicitudesRevision(string memory _asignatura) public view SoloProfesor(msg.sender) returns(string [] memory){\r\n        //Devolvemos el array de revisiones solicitadas\r\n        return Revisiones[_asignatura];\r\n    }\r\n}",
  "sourcePath": "/mnt/c/Users/Newton/Desktop/Oscar/learning-dapps/2. Truffle/2.2. Truffle con detalle/contracts/evaluaciones.sol",
  "compiler": {
    "name": "solc",
    "version": "0.8.11+commit.d7f03943.Emscripten.clang"
  },
  "schemaVersion": "3.4.4",
  "updatedAt": "2022-01-17T16:31:40.766Z",
  "devdoc": {
    "author": "Oscar R.C.",
    "kind": "dev",
    "methods": {},
    "title": "Evaluaciones",
    "version": 1
  },
  "userdoc": {
    "kind": "user",
    "methods": {},
    "notice": "Sistema de evaluaciones universitarias",
    "version": 1
  }
}