{
  "contractName": "Lotto",
  "abi": [
    {
      "inputs": [],
      "stateMutability": "nonpayable",
      "type": "constructor"
    },
    {
      "anonymous": false,
      "inputs": [
        {
          "indexed": false,
          "internalType": "address",
          "name": "buyer",
          "type": "address"
        },
        {
          "indexed": false,
          "internalType": "uint256",
          "name": "ticket",
          "type": "uint256"
        }
      ],
      "name": "ticketBought",
      "type": "event"
    },
    {
      "anonymous": false,
      "inputs": [
        {
          "indexed": false,
          "internalType": "address",
          "name": "buyer",
          "type": "address"
        },
        {
          "indexed": false,
          "internalType": "uint256",
          "name": "amount",
          "type": "uint256"
        }
      ],
      "name": "tokensBought",
      "type": "event"
    },
    {
      "anonymous": false,
      "inputs": [
        {
          "indexed": false,
          "internalType": "uint256",
          "name": "ticket",
          "type": "uint256"
        }
      ],
      "name": "winningTicket",
      "type": "event"
    },
    {
      "inputs": [],
      "name": "contract_address",
      "outputs": [
        {
          "internalType": "address",
          "name": "",
          "type": "address"
        }
      ],
      "stateMutability": "view",
      "type": "function",
      "constant": true
    },
    {
      "inputs": [],
      "name": "owner",
      "outputs": [
        {
          "internalType": "address",
          "name": "",
          "type": "address"
        }
      ],
      "stateMutability": "view",
      "type": "function",
      "constant": true
    },
    {
      "inputs": [],
      "name": "ticketPrice",
      "outputs": [
        {
          "internalType": "uint256",
          "name": "",
          "type": "uint256"
        }
      ],
      "stateMutability": "view",
      "type": "function",
      "constant": true
    },
    {
      "inputs": [],
      "name": "total_supply",
      "outputs": [
        {
          "internalType": "uint256",
          "name": "",
          "type": "uint256"
        }
      ],
      "stateMutability": "view",
      "type": "function",
      "constant": true
    },
    {
      "inputs": [
        {
          "internalType": "uint256",
          "name": "_num_tokens",
          "type": "uint256"
        }
      ],
      "name": "createTokens",
      "outputs": [],
      "stateMutability": "nonpayable",
      "type": "function"
    },
    {
      "inputs": [],
      "name": "availableTokens",
      "outputs": [
        {
          "internalType": "uint256",
          "name": "",
          "type": "uint256"
        }
      ],
      "stateMutability": "view",
      "type": "function",
      "constant": true
    },
    {
      "inputs": [
        {
          "internalType": "address",
          "name": "_to",
          "type": "address"
        },
        {
          "internalType": "uint256",
          "name": "_num_tokens",
          "type": "uint256"
        }
      ],
      "name": "buyTokens",
      "outputs": [],
      "stateMutability": "payable",
      "type": "function",
      "payable": true
    },
    {
      "inputs": [],
      "name": "jackpot",
      "outputs": [
        {
          "internalType": "uint256",
          "name": "",
          "type": "uint256"
        }
      ],
      "stateMutability": "view",
      "type": "function",
      "constant": true
    },
    {
      "inputs": [
        {
          "internalType": "address",
          "name": "_account",
          "type": "address"
        }
      ],
      "name": "balanceOf",
      "outputs": [
        {
          "internalType": "uint256",
          "name": "",
          "type": "uint256"
        }
      ],
      "stateMutability": "view",
      "type": "function",
      "constant": true
    },
    {
      "inputs": [
        {
          "internalType": "uint256",
          "name": "_num_tickets",
          "type": "uint256"
        }
      ],
      "name": "buyTickets",
      "outputs": [],
      "stateMutability": "nonpayable",
      "type": "function"
    },
    {
      "inputs": [],
      "name": "viewTickets",
      "outputs": [
        {
          "internalType": "uint256[]",
          "name": "",
          "type": "uint256[]"
        }
      ],
      "stateMutability": "view",
      "type": "function",
      "constant": true
    },
    {
      "inputs": [],
      "name": "generateWinner",
      "outputs": [],
      "stateMutability": "nonpayable",
      "type": "function"
    },
    {
      "inputs": [
        {
          "internalType": "uint256",
          "name": "_num_tokens",
          "type": "uint256"
        }
      ],
      "name": "cashoutTokens",
      "outputs": [],
      "stateMutability": "payable",
      "type": "function",
      "payable": true
    }
  ],
  "bytecode": "0x6080604052612710600355600560045560006007553480156200002157600080fd5b5033600160006101000a81548173ffffffffffffffffffffffffffffffffffffffff021916908373ffffffffffffffffffffffffffffffffffffffff16021790555030600260006101000a81548173ffffffffffffffffffffffffffffffffffffffff021916908373ffffffffffffffffffffffffffffffffffffffff160217905550600354604051620000b59062000124565b620000c191906200014d565b604051809103906000f080158015620000de573d6000803e3d6000fd5b506000806101000a81548173ffffffffffffffffffffffffffffffffffffffff021916908373ffffffffffffffffffffffffffffffffffffffff1602179055506200016a565b6116eb8062001b3e83390190565b6000819050919050565b620001478162000132565b82525050565b60006020820190506200016460008301846200013c565b92915050565b6119c4806200017a6000396000f3fe6080604052600436106100c25760003560e01c806369bb4dc21161007f57806370b90e7d1161005957806370b90e7d146102285780637e1f2bb8146102535780638da5cb5b1461027c578063966b3514146102a7576100c2565b806369bb4dc2146101955780636b31ee01146101c057806370a08231146101eb576100c2565b80630752881a146100c75780631209b1f6146100e3578063188af6571461010e5780632940f028146101255780632f366637146101415780633940e9ee1461016a575b600080fd5b6100e160048036038101906100dc9190611054565b6102d2565b005b3480156100ef57600080fd5b506100f86104ad565b60405161010591906110a3565b60405180910390f35b34801561011a57600080fd5b506101236104b3565b005b61013f600480360381019061013a91906110be565b610727565b005b34801561014d57600080fd5b50610168600480360381019061016391906110be565b6108d6565b005b34801561017657600080fd5b5061017f610b8d565b60405161018c91906110a3565b60405180910390f35b3480156101a157600080fd5b506101aa610b93565b6040516101b791906110a3565b60405180910390f35b3480156101cc57600080fd5b506101d5610c35565b6040516101e291906110a3565b60405180910390f35b3480156101f757600080fd5b50610212600480360381019061020d91906110eb565b610cf9565b60405161021f91906110a3565b60405180910390f35b34801561023457600080fd5b5061023d610d9d565b60405161024a91906111d6565b60405180910390f35b34801561025f57600080fd5b5061027a600480360381019061027591906110be565b610e32565b005b34801561028857600080fd5b50610291610f52565b60405161029e9190611207565b60405180910390f35b3480156102b357600080fd5b506102bc610f78565b6040516102c99190611207565b60405180910390f35b60006102dd82610f9e565b905080341015610322576040517f08c379a0000000000000000000000000000000000000000000000000000000008152600401610319906112a5565b60405180910390fd5b600061032c610b93565b905082811015610371576040517f08c379a000000000000000000000000000000000000000000000000000000000815260040161036890611337565b60405180910390fd5b6000823461037f9190611386565b905060003390508073ffffffffffffffffffffffffffffffffffffffff166108fc839081150290604051600060405180830381858888f193505050501580156103cc573d6000803e3d6000fd5b5060008054906101000a900473ffffffffffffffffffffffffffffffffffffffff1673ffffffffffffffffffffffffffffffffffffffff1663a9059cbb87876040518363ffffffff1660e01b81526004016104289291906113ba565b6020604051808303816000875af1158015610447573d6000803e3d6000fd5b505050506040513d601f19601f8201168201806040525081019061046b919061141b565b507f6ebf55d0cee4245affe84127b666e1c5c6614cce8e0de4290cc3210d2b83b630868660405161049d9291906113ba565b60405180910390a1505050505050565b60045481565b33600160009054906101000a900473ffffffffffffffffffffffffffffffffffffffff1673ffffffffffffffffffffffffffffffffffffffff168173ffffffffffffffffffffffffffffffffffffffff1614610544576040517f08c379a000000000000000000000000000000000000000000000000000000000815260040161053b906114ba565b60405180910390fd5b6000600880549050905060018111610591576040517f08c379a00000000000000000000000000000000000000000000000000000000081526004016105889061154c565b60405180910390fd5b600081426040516020016105a5919061158d565b6040516020818303038152906040528051906020012060001c6105c891906115d7565b90506000600882815481106105e0576105df611608565b5b906000526020600020015490507fdeb6263f5594b114cabe59bc9533219412cc13883ffdc5fd1a746e19d3725b308160405161061c91906110a3565b60405180910390a160008054906101000a900473ffffffffffffffffffffffffffffffffffffffff1673ffffffffffffffffffffffffffffffffffffffff1663579952fc600160009054906101000a900473ffffffffffffffffffffffffffffffffffffffff166006600085815260200190815260200160002060009054906101000a900473ffffffffffffffffffffffffffffffffffffffff166106bf610c35565b6040518463ffffffff1660e01b81526004016106dd93929190611637565b6020604051808303816000875af11580156106fc573d6000803e3d6000fd5b505050506040513d601f19601f82011682018060405250810190610720919061141b565b5050505050565b6000811161076a576040517f08c379a0000000000000000000000000000000000000000000000000000000008152600401610761906116e0565b60405180910390fd5b8061077433610cf9565b10156107b5576040517f08c379a00000000000000000000000000000000000000000000000000000000081526004016107ac90611772565b60405180910390fd5b60008054906101000a900473ffffffffffffffffffffffffffffffffffffffff1673ffffffffffffffffffffffffffffffffffffffff1663579952fc33600260009054906101000a900473ffffffffffffffffffffffffffffffffffffffff16846040518463ffffffff1660e01b815260040161083493929190611637565b6020604051808303816000875af1158015610853573d6000803e3d6000fd5b505050506040513d601f19601f82011682018060405250810190610877919061141b565b50600061088382610f9e565b905060003390508073ffffffffffffffffffffffffffffffffffffffff166108fc839081150290604051600060405180830381858888f193505050501580156108d0573d6000803e3d6000fd5b50505050565b6000600454826108e69190611792565b9050806108f233610cf9565b1015610933576040517f08c379a000000000000000000000000000000000000000000000000000000000815260040161092a9061185e565b60405180910390fd5b60008054906101000a900473ffffffffffffffffffffffffffffffffffffffff1673ffffffffffffffffffffffffffffffffffffffff1663579952fc33600160009054906101000a900473ffffffffffffffffffffffffffffffffffffffff16846040518463ffffffff1660e01b81526004016109b293929190611637565b6020604051808303816000875af11580156109d1573d6000803e3d6000fd5b505050506040513d601f19601f820116820180604052508101906109f5919061141b565b5060005b82811015610b885760006127104233600754604051602001610a1d939291906118c6565b6040516020818303038152906040528051906020012060001c610a4091906115d7565b905060076000815480929190610a5590611903565b9190505550600560003373ffffffffffffffffffffffffffffffffffffffff1673ffffffffffffffffffffffffffffffffffffffff168152602001908152602001600020819080600181540180825580915050600190039060005260206000200160009091909190915055336006600083815260200190815260200160002060006101000a81548173ffffffffffffffffffffffffffffffffffffffff021916908373ffffffffffffffffffffffffffffffffffffffff16021790555060088190806001815401808255809150506001900390600052602060002001600090919091909150557f1a27c64949bde3c02fbb733037ee5bb7f5114da8e5b808e80f23c1dd5c1a00583382604051610b6c9291906113ba565b60405180910390a1508080610b8090611903565b9150506109f9565b505050565b60035481565b60008060009054906101000a900473ffffffffffffffffffffffffffffffffffffffff1673ffffffffffffffffffffffffffffffffffffffff166370a08231306040518263ffffffff1660e01b8152600401610bef9190611207565b602060405180830381865afa158015610c0c573d6000803e3d6000fd5b505050506040513d601f19601f82011682018060405250810190610c309190611961565b905090565b60008060009054906101000a900473ffffffffffffffffffffffffffffffffffffffff1673ffffffffffffffffffffffffffffffffffffffff166370a08231600160009054906101000a900473ffffffffffffffffffffffffffffffffffffffff166040518263ffffffff1660e01b8152600401610cb39190611207565b602060405180830381865afa158015610cd0573d6000803e3d6000fd5b505050506040513d601f19601f82011682018060405250810190610cf49190611961565b905090565b60008060009054906101000a900473ffffffffffffffffffffffffffffffffffffffff1673ffffffffffffffffffffffffffffffffffffffff166370a08231836040518263ffffffff1660e01b8152600401610d559190611207565b602060405180830381865afa158015610d72573d6000803e3d6000fd5b505050506040513d601f19601f82011682018060405250810190610d969190611961565b9050919050565b6060600560003373ffffffffffffffffffffffffffffffffffffffff1673ffffffffffffffffffffffffffffffffffffffff168152602001908152602001600020805480602002602001604051908101604052809291908181526020018280548015610e2857602002820191906000526020600020905b815481526020019060010190808311610e14575b5050505050905090565b33600160009054906101000a900473ffffffffffffffffffffffffffffffffffffffff1673ffffffffffffffffffffffffffffffffffffffff168173ffffffffffffffffffffffffffffffffffffffff1614610ec3576040517f08c379a0000000000000000000000000000000000000000000000000000000008152600401610eba906114ba565b60405180910390fd5b60008054906101000a900473ffffffffffffffffffffffffffffffffffffffff1673ffffffffffffffffffffffffffffffffffffffff16631d43cc98836040518263ffffffff1660e01b8152600401610f1c91906110a3565b600060405180830381600087803b158015610f3657600080fd5b505af1158015610f4a573d6000803e3d6000fd5b505050505050565b600160009054906101000a900473ffffffffffffffffffffffffffffffffffffffff1681565b600260009054906101000a900473ffffffffffffffffffffffffffffffffffffffff1681565b60006706f05b59d3b2000082610fb49190611792565b9050919050565b600080fd5b600073ffffffffffffffffffffffffffffffffffffffff82169050919050565b6000610feb82610fc0565b9050919050565b610ffb81610fe0565b811461100657600080fd5b50565b60008135905061101881610ff2565b92915050565b6000819050919050565b6110318161101e565b811461103c57600080fd5b50565b60008135905061104e81611028565b92915050565b6000806040838503121561106b5761106a610fbb565b5b600061107985828601611009565b925050602061108a8582860161103f565b9150509250929050565b61109d8161101e565b82525050565b60006020820190506110b86000830184611094565b92915050565b6000602082840312156110d4576110d3610fbb565b5b60006110e28482850161103f565b91505092915050565b60006020828403121561110157611100610fbb565b5b600061110f84828501611009565b91505092915050565b600081519050919050565b600082825260208201905092915050565b6000819050602082019050919050565b61114d8161101e565b82525050565b600061115f8383611144565b60208301905092915050565b6000602082019050919050565b600061118382611118565b61118d8185611123565b935061119883611134565b8060005b838110156111c95781516111b08882611153565b97506111bb8361116b565b92505060018101905061119c565b5085935050505092915050565b600060208201905081810360008301526111f08184611178565b905092915050565b61120181610fe0565b82525050565b600060208201905061121c60008301846111f8565b92915050565b600082825260208201905092915050565b7f596f7520646f6e2774206861766520656e6f75676820657468657220746f206260008201527f7579207468697320616d6f756e74206f6620746f6b656e730000000000000000602082015250565b600061128f603883611222565b915061129a82611233565b604082019050919050565b600060208201905081810360008301526112be81611282565b9050919050565b7f546865726520617265206e6f7420656e6f75676820746f6b656e73206176616960008201527f6c61626c65000000000000000000000000000000000000000000000000000000602082015250565b6000611321602583611222565b915061132c826112c5565b604082019050919050565b6000602082019050818103600083015261135081611314565b9050919050565b7f4e487b7100000000000000000000000000000000000000000000000000000000600052601160045260246000fd5b60006113918261101e565b915061139c8361101e565b9250828210156113af576113ae611357565b5b828203905092915050565b60006040820190506113cf60008301856111f8565b6113dc6020830184611094565b9392505050565b60008115159050919050565b6113f8816113e3565b811461140357600080fd5b50565b600081519050611415816113ef565b92915050565b60006020828403121561143157611430610fbb565b5b600061143f84828501611406565b91505092915050565b7f546869732066756e6374696f6e206973207265737472696374656420746f207460008201527f686520636f6e7472616374206f776e6572000000000000000000000000000000602082015250565b60006114a4603183611222565b91506114af82611448565b604082019050919050565b600060208201905081810360008301526114d381611497565b9050919050565b7f546865726520617265206e6f7420656e6f756768207469636b65747320746f2060008201527f67656e657261746520612077696e6e6572000000000000000000000000000000602082015250565b6000611536603183611222565b9150611541826114da565b604082019050919050565b6000602082019050818103600083015261156581611529565b9050919050565b6000819050919050565b6115876115828261101e565b61156c565b82525050565b60006115998284611576565b60208201915081905092915050565b7f4e487b7100000000000000000000000000000000000000000000000000000000600052601260045260246000fd5b60006115e28261101e565b91506115ed8361101e565b9250826115fd576115fc6115a8565b5b828206905092915050565b7f4e487b7100000000000000000000000000000000000000000000000000000000600052603260045260246000fd5b600060608201905061164c60008301866111f8565b61165960208301856111f8565b6116666040830184611094565b949350505050565b7f596f752063616e277420636173686f75742030206f72206e656761746976652060008201527f746f6b656e730000000000000000000000000000000000000000000000000000602082015250565b60006116ca602683611222565b91506116d58261166e565b604082019050919050565b600060208201905081810360008301526116f9816116bd565b9050919050565b7f596f7520646f6e2774206861766520656e6f75676820746f6b656e7320746f2060008201527f636173686f757400000000000000000000000000000000000000000000000000602082015250565b600061175c602783611222565b915061176782611700565b604082019050919050565b6000602082019050818103600083015261178b8161174f565b9050919050565b600061179d8261101e565b91506117a88361101e565b9250817fffffffffffffffffffffffffffffffffffffffffffffffffffffffffffffffff04831182151516156117e1576117e0611357565b5b828202905092915050565b7f596f7520646f6e2774206861766520656e6f75676820746f6b656e7320746f2060008201527f627579207468697320616d6f756e74206f66207469636b657473000000000000602082015250565b6000611848603a83611222565b9150611853826117ec565b604082019050919050565b600060208201905081810360008301526118778161183b565b9050919050565b60008160601b9050919050565b60006118968261187e565b9050919050565b60006118a88261188b565b9050919050565b6118c06118bb82610fe0565b61189d565b82525050565b60006118d28286611576565b6020820191506118e282856118af565b6014820191506118f28284611576565b602082019150819050949350505050565b600061190e8261101e565b91507fffffffffffffffffffffffffffffffffffffffffffffffffffffffffffffffff82141561194157611940611357565b5b600182019050919050565b60008151905061195b81611028565b92915050565b60006020828403121561197757611976610fbb565b5b60006119858482850161194c565b9150509291505056fea2646970667358221220ea33504c8d65132557c16915c331920f642194cb824ca69adb6d7fd5508333b064736f6c634300080b003360806040523480156200001157600080fd5b50604051620016eb380380620016eb83398181016040528101906200003791906200012d565b33600360006101000a81548173ffffffffffffffffffffffffffffffffffffffff021916908373ffffffffffffffffffffffffffffffffffffffff16021790555080600281905550600254600080600360009054906101000a900473ffffffffffffffffffffffffffffffffffffffff1673ffffffffffffffffffffffffffffffffffffffff1673ffffffffffffffffffffffffffffffffffffffff16815260200190815260200160002081905550506200015f565b600080fd5b6000819050919050565b6200010781620000f2565b81146200011357600080fd5b50565b6000815190506200012781620000fc565b92915050565b600060208284031215620001465762000145620000ed565b5b6000620001568482850162000116565b91505092915050565b61157c806200016f6000396000f3fe608060405234801561001057600080fd5b50600436106100cf5760003560e01c8063313ce5671161008c5780638da5cb5b116100665780638da5cb5b1461023a57806395d89b4114610258578063a9059cbb14610276578063dd62ed3e146102a6576100cf565b8063313ce567146101bc578063579952fc146101da57806370a082311461020a576100cf565b806306fdde03146100d4578063095ea7b3146100f257806318160ddd146101225780631d43cc981461014057806323b872dd1461015c57806327e235e31461018c575b600080fd5b6100dc6102d6565b6040516100e99190610fdf565b60405180910390f35b61010c6004803603810190610107919061109a565b61030f565b60405161011991906110f5565b60405180910390f35b61012a610401565b604051610137919061111f565b60405180910390f35b61015a6004803603810190610155919061113a565b61040b565b005b61017660048036038101906101719190611167565b610590565b60405161018391906110f5565b60405180910390f35b6101a660048036038101906101a191906111ba565b610977565b6040516101b3919061111f565b60405180910390f35b6101c461098f565b6040516101d19190611203565b60405180910390f35b6101f460048036038101906101ef9190611167565b610994565b60405161020191906110f5565b60405180910390f35b610224600480360381019061021f91906111ba565b610bad565b604051610231919061111f565b60405180910390f35b610242610bf5565b60405161024f919061122d565b60405180910390f35b610260610c1b565b60405161026d9190610fdf565b60405180910390f35b610290600480360381019061028b919061109a565b610c54565b60405161029d91906110f5565b60405180910390f35b6102c060048036038101906102bb9190611248565b610e6c565b6040516102cd919061111f565b60405180910390f35b6040518060400160405280601081526020017f4f7363617220522e432e20546f6b656e0000000000000000000000000000000081525081565b600081600160003373ffffffffffffffffffffffffffffffffffffffff1673ffffffffffffffffffffffffffffffffffffffff16815260200190815260200160002060008573ffffffffffffffffffffffffffffffffffffffff1673ffffffffffffffffffffffffffffffffffffffff168152602001908152602001600020819055508273ffffffffffffffffffffffffffffffffffffffff163373ffffffffffffffffffffffffffffffffffffffff167f8c5be1e5ebec7d5bd14f71427d1e84f3dd0314c0f7b2291e5b200ac8c7c3b925846040516103ef919061111f565b60405180910390a36001905092915050565b6000600254905090565b600360009054906101000a900473ffffffffffffffffffffffffffffffffffffffff1673ffffffffffffffffffffffffffffffffffffffff163373ffffffffffffffffffffffffffffffffffffffff161461049b576040517f08c379a0000000000000000000000000000000000000000000000000000000008152600401610492906112fa565b60405180910390fd5b6104b081600254610ef390919063ffffffff16565b60028190555061052981600080600360009054906101000a900473ffffffffffffffffffffffffffffffffffffffff1673ffffffffffffffffffffffffffffffffffffffff1673ffffffffffffffffffffffffffffffffffffffff16815260200190815260200160002054610ef390919063ffffffff16565b600080600360009054906101000a900473ffffffffffffffffffffffffffffffffffffffff1673ffffffffffffffffffffffffffffffffffffffff1673ffffffffffffffffffffffffffffffffffffffff1681526020019081526020016000208190555050565b6000816000808673ffffffffffffffffffffffffffffffffffffffff1673ffffffffffffffffffffffffffffffffffffffff168152602001908152602001600020541015610613576040517f08c379a000000000000000000000000000000000000000000000000000000000815260040161060a90611366565b60405180910390fd5b81600160008673ffffffffffffffffffffffffffffffffffffffff1673ffffffffffffffffffffffffffffffffffffffff16815260200190815260200160002060003373ffffffffffffffffffffffffffffffffffffffff1673ffffffffffffffffffffffffffffffffffffffff1681526020019081526020016000205410156106d2576040517f08c379a00000000000000000000000000000000000000000000000000000000081526004016106c9906113d2565b60405180910390fd5b610723826000808773ffffffffffffffffffffffffffffffffffffffff1673ffffffffffffffffffffffffffffffffffffffff16815260200190815260200160002054610f1f90919063ffffffff16565b6000808673ffffffffffffffffffffffffffffffffffffffff1673ffffffffffffffffffffffffffffffffffffffff168152602001908152602001600020819055506107f482600160008773ffffffffffffffffffffffffffffffffffffffff1673ffffffffffffffffffffffffffffffffffffffff16815260200190815260200160002060003373ffffffffffffffffffffffffffffffffffffffff1673ffffffffffffffffffffffffffffffffffffffff16815260200190815260200160002054610f1f90919063ffffffff16565b600160008673ffffffffffffffffffffffffffffffffffffffff1673ffffffffffffffffffffffffffffffffffffffff16815260200190815260200160002060003373ffffffffffffffffffffffffffffffffffffffff1673ffffffffffffffffffffffffffffffffffffffff168152602001908152602001600020819055506108c5826000808673ffffffffffffffffffffffffffffffffffffffff1673ffffffffffffffffffffffffffffffffffffffff16815260200190815260200160002054610ef390919063ffffffff16565b6000808573ffffffffffffffffffffffffffffffffffffffff1673ffffffffffffffffffffffffffffffffffffffff168152602001908152602001600020819055508273ffffffffffffffffffffffffffffffffffffffff168473ffffffffffffffffffffffffffffffffffffffff167fddf252ad1be2c89b69c2b068fc378daa952ba7f163c4a11628f55a4df523b3ef84604051610964919061111f565b60405180910390a3600190509392505050565b60006020528060005260406000206000915090505481565b600281565b60008060008573ffffffffffffffffffffffffffffffffffffffff1673ffffffffffffffffffffffffffffffffffffffff16815260200190815260200160002054821115610a17576040517f08c379a0000000000000000000000000000000000000000000000000000000008152600401610a0e9061143e565b60405180910390fd5b610a68826000808773ffffffffffffffffffffffffffffffffffffffff1673ffffffffffffffffffffffffffffffffffffffff16815260200190815260200160002054610f1f90919063ffffffff16565b6000808673ffffffffffffffffffffffffffffffffffffffff1673ffffffffffffffffffffffffffffffffffffffff16815260200190815260200160002081905550610afb826000808673ffffffffffffffffffffffffffffffffffffffff1673ffffffffffffffffffffffffffffffffffffffff16815260200190815260200160002054610ef390919063ffffffff16565b6000808573ffffffffffffffffffffffffffffffffffffffff1673ffffffffffffffffffffffffffffffffffffffff168152602001908152602001600020819055508273ffffffffffffffffffffffffffffffffffffffff168473ffffffffffffffffffffffffffffffffffffffff167fddf252ad1be2c89b69c2b068fc378daa952ba7f163c4a11628f55a4df523b3ef84604051610b9a919061111f565b60405180910390a3600190509392505050565b60008060008373ffffffffffffffffffffffffffffffffffffffff1673ffffffffffffffffffffffffffffffffffffffff168152602001908152602001600020549050919050565b600360009054906101000a900473ffffffffffffffffffffffffffffffffffffffff1681565b6040518060400160405280600481526020017f4f5243540000000000000000000000000000000000000000000000000000000081525081565b6000816000803373ffffffffffffffffffffffffffffffffffffffff1673ffffffffffffffffffffffffffffffffffffffff168152602001908152602001600020541015610cd7576040517f08c379a0000000000000000000000000000000000000000000000000000000008152600401610cce9061143e565b60405180910390fd5b610d28826000803373ffffffffffffffffffffffffffffffffffffffff1673ffffffffffffffffffffffffffffffffffffffff16815260200190815260200160002054610f1f90919063ffffffff16565b6000803373ffffffffffffffffffffffffffffffffffffffff1673ffffffffffffffffffffffffffffffffffffffff16815260200190815260200160002081905550610dbb826000808673ffffffffffffffffffffffffffffffffffffffff1673ffffffffffffffffffffffffffffffffffffffff16815260200190815260200160002054610ef390919063ffffffff16565b6000808573ffffffffffffffffffffffffffffffffffffffff1673ffffffffffffffffffffffffffffffffffffffff168152602001908152602001600020819055508273ffffffffffffffffffffffffffffffffffffffff163373ffffffffffffffffffffffffffffffffffffffff167fddf252ad1be2c89b69c2b068fc378daa952ba7f163c4a11628f55a4df523b3ef84604051610e5a919061111f565b60405180910390a36001905092915050565b6000600160008473ffffffffffffffffffffffffffffffffffffffff1673ffffffffffffffffffffffffffffffffffffffff16815260200190815260200160002060008373ffffffffffffffffffffffffffffffffffffffff1673ffffffffffffffffffffffffffffffffffffffff16815260200190815260200160002054905092915050565b6000808284610f02919061148d565b905083811015610f1557610f146114e3565b5b8091505092915050565b600082821115610f3257610f316114e3565b5b8183610f3e9190611512565b905092915050565b600081519050919050565b600082825260208201905092915050565b60005b83811015610f80578082015181840152602081019050610f65565b83811115610f8f576000848401525b50505050565b6000601f19601f8301169050919050565b6000610fb182610f46565b610fbb8185610f51565b9350610fcb818560208601610f62565b610fd481610f95565b840191505092915050565b60006020820190508181036000830152610ff98184610fa6565b905092915050565b600080fd5b600073ffffffffffffffffffffffffffffffffffffffff82169050919050565b600061103182611006565b9050919050565b61104181611026565b811461104c57600080fd5b50565b60008135905061105e81611038565b92915050565b6000819050919050565b61107781611064565b811461108257600080fd5b50565b6000813590506110948161106e565b92915050565b600080604083850312156110b1576110b0611001565b5b60006110bf8582860161104f565b92505060206110d085828601611085565b9150509250929050565b60008115159050919050565b6110ef816110da565b82525050565b600060208201905061110a60008301846110e6565b92915050565b61111981611064565b82525050565b60006020820190506111346000830184611110565b92915050565b6000602082840312156111505761114f611001565b5b600061115e84828501611085565b91505092915050565b6000806000606084860312156111805761117f611001565b5b600061118e8682870161104f565b935050602061119f8682870161104f565b92505060406111b086828701611085565b9150509250925092565b6000602082840312156111d0576111cf611001565b5b60006111de8482850161104f565b91505092915050565b600060ff82169050919050565b6111fd816111e7565b82525050565b600060208201905061121860008301846111f4565b92915050565b61122781611026565b82525050565b6000602082019050611242600083018461121e565b92915050565b6000806040838503121561125f5761125e611001565b5b600061126d8582860161104f565b925050602061127e8582860161104f565b9150509250929050565b7f4f6e6c7920636f6e7472616374206f776e65722063616e20696e63726561736560008201527f2074686520737570706c79000000000000000000000000000000000000000000602082015250565b60006112e4602b83610f51565b91506112ef82611288565b604082019050919050565b60006020820190508181036000830152611313816112d7565b9050919050565b7f416c6c6f77657220686173206e6f7420656e6f75676820746f6b656e73000000600082015250565b6000611350601d83610f51565b915061135b8261131a565b602082019050919050565b6000602082019050818103600083015261137f81611343565b9050919050565b7f416c6c6f77616e6365206973206e6f7420656e6f756768000000000000000000600082015250565b60006113bc601783610f51565b91506113c782611386565b602082019050919050565b600060208201905081810360008301526113eb816113af565b9050919050565b7f4e6f7420656e6f75676820746f6b656e73000000000000000000000000000000600082015250565b6000611428601183610f51565b9150611433826113f2565b602082019050919050565b600060208201905081810360008301526114578161141b565b9050919050565b7f4e487b7100000000000000000000000000000000000000000000000000000000600052601160045260246000fd5b600061149882611064565b91506114a383611064565b9250827fffffffffffffffffffffffffffffffffffffffffffffffffffffffffffffffff038211156114d8576114d761145e565b5b828201905092915050565b7f4e487b7100000000000000000000000000000000000000000000000000000000600052600160045260246000fd5b600061151d82611064565b915061152883611064565b92508282101561153b5761153a61145e565b5b82820390509291505056fea2646970667358221220311b8686de7afbd6839977aea54b784ae32fe029b43a2a1588629ceb2f67c92c64736f6c634300080b0033",
  "immutableReferences": {},
  "source": "//SPDX-License-Identifier: MIT\n\npragma solidity >=0.4.4 <0.9.0;\n\n// Importamos el contrato del token\nimport \"./ERC20.sol\";\nimport \"./SafeMath.sol\";\n\n/// @title Lotto\n/// @author Oscar R.C.\n/// @notice Sistema de loteras basado en blockchain y tokens ERC20\n\ncontract Lotto {\n    // *** LIBRERIAS *** //\n    // Declaramos SafeMath para uint\n    using SafeMath for uint;\n\n    // *** VARIABLES *** //\n    // Instancia del contrato Token\n    Token private token;\n\n    // Owner del contrato\n    address public owner;\n    // Direccin del contrato\n    address public contract_address; \n\n    // Nmero de tokens a crear\n    uint public total_supply = 10000;\n\n    // ** CONSTRUCTOR ** //\n    constructor(){\n        // Establecemos owner del contrato\n        owner = msg.sender;\n\n        // Establecemos la direccin del contrato\n        contract_address = address(this);\n\n        // Inicializamos el contrato Token ERC20\n        token = new Token(total_supply);\n    }\n\n    // ------------------------- TOKEN ------------------------- //\n\n    // ** MODIFICADORES ** //\n    modifier onlyOwner(address _caller){\n        require(_caller == owner, \"This function is restricted to the contract owner\");\n        _;\n    }\n\n    // ** EVENTOS ** //\n    event tokensBought(address buyer, uint amount);\n\n    // *** FUNCIONES *** //\n    // Funcion para establecer el precio del token\n    function tokenPrice(uint _num_tokens) internal pure returns (uint) {\n        return _num_tokens * 0.5 ether;\n    }\n\n    // Funcion para ampliar el numero de tokens\n    function createTokens(uint _num_tokens) public onlyOwner(msg.sender){\n        // Utilizamos el mtodo increaseTotalSupply del contrato Token\n        token.increaseTotalSupply(_num_tokens);\n    }\n\n    // Funcin para obtener el balance de tokens disponibles\n    function availableTokens() public view returns(uint){\n        // Los tokens disponibles son los tokens de los que dispone el address del contrato\n        return token.balanceOf(address(this));\n    }\n\n    // Funcion para comprar tokens\n    function buyTokens(address _to, uint _num_tokens) public payable{\n        // Obtenemos el precio del token\n        uint price = tokenPrice(_num_tokens);\n        // Requerimos que el usuario tenga los eth suficientes\n        require(msg.value >= price, \"You don't have enough ether to buy this amount of tokens\");\n\n        // Obtencin del nmero de tokens disponibles\n        uint balance = availableTokens();\n        // Requerimos que haya tokens disponibles suficientes\n        require(balance >= _num_tokens, \"There are not enough tokens available\");\n\n        // Calculamos las vueltas\n        uint return_value = msg.value - price;\n        // Se devuelve el returnValue al cliente\n        address payable return_address = payable(msg.sender);\n        return_address.transfer(return_value);\n\n        // Transferimos los tokens al usuario\n        token.transfer(_to, _num_tokens);\n\n        // Emitimos el evento\n        emit tokensBought(_to, _num_tokens);\n    }\n\n    // Funcion para obtener el balance de tokens en el bote\n    function jackpot() public view returns(uint){\n        // El bote se guarda en el owner del contrato\n        return token.balanceOf(owner);\n    }\n\n    // Funcion para visualizar tokens disponibles\n    function balanceOf(address _account) public view returns(uint){\n        return token.balanceOf(_account);\n    }\n\n    // ------------------------- LOTERIA ------------------------- //\n\n    // ** VARIABLES ** //\n    // Precio del boleto de lotera. 5 tokens.\n    uint public ticketPrice = 5;\n\n    // Relacin entre usuario y nmeros de los boletos comprados.\n    mapping(address => uint[]) addressTickets;\n\n    // Relacin entre nmero y usuario\n    mapping(uint => address) ticketAddress;\n\n    // Nmero aleatorio para generar boletos\n    uint randNonce = 0; // nonce es un valor que solo se utiliza una vez\n\n    // Registro boletos generados\n    uint []  tickets;\n\n    // ** EVENTOS ** //\n    // Boleto comprado\n    event ticketBought(address buyer, uint ticket);\n\n    // Boleto ganador\n    event winningTicket(uint ticket);\n\n    // ** FUNCIONES ** //\n    // Comprar un boleto de lotera con tokens\n    function buyTickets(uint _num_tickets) public{\n        // Calculamos el precio\n        uint price = _num_tickets * ticketPrice;\n        // Requerimos que el usuario tenga los tokens suficientes\n        require(balanceOf(msg.sender) >= price, \"You don't have enough tokens to buy this amount of tickets\");\n\n        // Transferencia de tokens al owner del contrato (mtodo transfer del contrato token). El bote.\n        token.transferFromTo(msg.sender, owner, price);\n\n        // Asignacin del nmero de boleto aleatorio\n        for(uint i = 0; i < _num_tickets; i++){\n            /*\n                Generamos un nmero aleatorio utilizando el hash de la marca de tiempo actual, la direccin del usuario y un nonce\n                (Nmero que solo se utiliza una vez, para no ejecutar dos veces la misma funcin hash con los mismos parmetros).\n\n                El nonce se incrementa en 1 en cada ejecucin del bucle.\n\n                Finalmente casteamos el hash a uint y lo dividimos entre 10000 para obtener los ltimos 4 dgitos.\n            */\n            uint random = uint(keccak256(abi.encodePacked(block.timestamp, msg.sender, randNonce))) % 10000;\n            randNonce++;\n\n            // Asignamos el nmero a los nmeros del usuario\n            addressTickets[msg.sender].push(random);\n            // Asignamos el nmero a la direccin del usuario\n            ticketAddress[random] = msg.sender;\n            // Aadimos el boleto al array de boletos\n            tickets.push(random);\n\n            // Emitimos el evento de compra\n            emit ticketBought(msg.sender, random);\n        }\n    }\n  \n    // Funcion que permite al usuario ver el nmero de sus boletos\n    function viewTickets() public view returns(uint[] memory){\n        return addressTickets[msg.sender];\n    }\n\n    // Funcion para generar ganador de la lotera e ingresar el premio\n    function generateWinner() public onlyOwner(msg.sender){\n        // Nmero de boletos comprados\n        uint tikets_bought = tickets.length;\n\n        // Requerimos que hay ms de 1 boleto comprado\n        require(tikets_bought > 1, \"There are not enough tickets to generate a winner\");\n\n        // Generamos una posicin aleatoria en el array tickets entre 0 y tickets_bought.\n        // Casteamos dos veces para asegurarnos de que el resultado sea entero\n        uint position = uint(uint(keccak256(abi.encodePacked(block.timestamp))) % tikets_bought);\n        // Obtenemos el ganador\n        uint winner = tickets[position];        \n        // Emitimos el evento de ganador\n        emit winningTicket(winner);\n\n        // Transferimos los tokens al ganador\n        token.transferFromTo(owner, ticketAddress[winner], jackpot());\n    }\n\n    function cashoutTokens(uint _num_tokens) public payable{        \n        // Requerimos que el nmero de tokens a convertir sea mayor que cero\n        require(_num_tokens > 0, \"You can't cashout 0 or negative tokens\");\n        // Requerimos que el nmero de tokens a convertir sea menor o igual al nmero de tokens disponibles\n        require(balanceOf(msg.sender) >= _num_tokens, \"You don't have enough tokens to cashout\");\n\n        // Retiramos los tokens de la cuenta del usuario\n        token.transferFromTo(msg.sender, contract_address, _num_tokens);\n                \n        // Calculamos el precio de los tokens\n        uint total = tokenPrice(_num_tokens);\n        // Transferimos el nmero de ethers al usuario. Los ethers se encuentran en la direccin del contrato\n        address payable cashout_address = payable(msg.sender);\n        cashout_address.transfer(total);\n    }\n}",
  "sourcePath": "/mnt/d/Web/learning-dapps/5. Tokens ERC-20/5.5. Dapp lotera ERC20/dapp-lotto/src/truffle/contracts/Lotto.sol",
  "compiler": {
    "name": "solc",
    "version": "0.8.11+commit.d7f03943.Emscripten.clang"
  },
  "schemaVersion": "3.4.4",
  "updatedAt": "2022-04-16T11:55:11.731Z",
  "networkType": "ethereum",
  "devdoc": {
    "author": "Oscar R.C.",
    "kind": "dev",
    "methods": {},
    "title": "Lotto",
    "version": 1
  },
  "userdoc": {
    "kind": "user",
    "methods": {},
    "notice": "Sistema de loteras basado en blockchain y tokens ERC20",
    "version": 1
  }
}