{
  "contractName": "Lotto",
  "abi": [
    {
      "inputs": [],
      "stateMutability": "nonpayable",
      "type": "constructor"
    },
    {
      "anonymous": false,
      "inputs": [
        {
          "indexed": false,
          "internalType": "address",
          "name": "buyer",
          "type": "address"
        },
        {
          "indexed": false,
          "internalType": "uint256",
          "name": "ticket",
          "type": "uint256"
        }
      ],
      "name": "ticketBought",
      "type": "event"
    },
    {
      "anonymous": false,
      "inputs": [
        {
          "indexed": false,
          "internalType": "address",
          "name": "buyer",
          "type": "address"
        },
        {
          "indexed": false,
          "internalType": "uint256",
          "name": "amount",
          "type": "uint256"
        }
      ],
      "name": "tokensBought",
      "type": "event"
    },
    {
      "anonymous": false,
      "inputs": [
        {
          "indexed": false,
          "internalType": "uint256",
          "name": "ticket",
          "type": "uint256"
        }
      ],
      "name": "winningTicket",
      "type": "event"
    },
    {
      "inputs": [],
      "name": "contract_address",
      "outputs": [
        {
          "internalType": "address",
          "name": "",
          "type": "address"
        }
      ],
      "stateMutability": "view",
      "type": "function",
      "constant": true
    },
    {
      "inputs": [],
      "name": "owner",
      "outputs": [
        {
          "internalType": "address",
          "name": "",
          "type": "address"
        }
      ],
      "stateMutability": "view",
      "type": "function",
      "constant": true
    },
    {
      "inputs": [],
      "name": "ticketPrice",
      "outputs": [
        {
          "internalType": "uint256",
          "name": "",
          "type": "uint256"
        }
      ],
      "stateMutability": "view",
      "type": "function",
      "constant": true
    },
    {
      "inputs": [],
      "name": "total_supply",
      "outputs": [
        {
          "internalType": "uint256",
          "name": "",
          "type": "uint256"
        }
      ],
      "stateMutability": "view",
      "type": "function",
      "constant": true
    },
    {
      "inputs": [],
      "name": "winner_address",
      "outputs": [
        {
          "internalType": "address",
          "name": "",
          "type": "address"
        }
      ],
      "stateMutability": "view",
      "type": "function",
      "constant": true
    },
    {
      "inputs": [
        {
          "internalType": "uint256",
          "name": "_num_tokens",
          "type": "uint256"
        }
      ],
      "name": "createTokens",
      "outputs": [],
      "stateMutability": "nonpayable",
      "type": "function"
    },
    {
      "inputs": [],
      "name": "availableTokens",
      "outputs": [
        {
          "internalType": "uint256",
          "name": "",
          "type": "uint256"
        }
      ],
      "stateMutability": "view",
      "type": "function",
      "constant": true
    },
    {
      "inputs": [
        {
          "internalType": "address",
          "name": "_to",
          "type": "address"
        },
        {
          "internalType": "uint256",
          "name": "_num_tokens",
          "type": "uint256"
        }
      ],
      "name": "buyTokens",
      "outputs": [],
      "stateMutability": "payable",
      "type": "function",
      "payable": true
    },
    {
      "inputs": [],
      "name": "jackpot",
      "outputs": [
        {
          "internalType": "uint256",
          "name": "",
          "type": "uint256"
        }
      ],
      "stateMutability": "view",
      "type": "function",
      "constant": true
    },
    {
      "inputs": [
        {
          "internalType": "address",
          "name": "_account",
          "type": "address"
        }
      ],
      "name": "balanceOf",
      "outputs": [
        {
          "internalType": "uint256",
          "name": "",
          "type": "uint256"
        }
      ],
      "stateMutability": "view",
      "type": "function",
      "constant": true
    },
    {
      "inputs": [
        {
          "internalType": "uint256",
          "name": "_num_tickets",
          "type": "uint256"
        }
      ],
      "name": "buyTickets",
      "outputs": [],
      "stateMutability": "nonpayable",
      "type": "function"
    },
    {
      "inputs": [],
      "name": "viewTickets",
      "outputs": [
        {
          "internalType": "uint256[]",
          "name": "",
          "type": "uint256[]"
        }
      ],
      "stateMutability": "view",
      "type": "function",
      "constant": true
    },
    {
      "inputs": [],
      "name": "generateWinner",
      "outputs": [],
      "stateMutability": "nonpayable",
      "type": "function"
    },
    {
      "inputs": [
        {
          "internalType": "uint256",
          "name": "_num_tokens",
          "type": "uint256"
        }
      ],
      "name": "cashoutTokens",
      "outputs": [],
      "stateMutability": "payable",
      "type": "function",
      "payable": true
    }
  ],
  "bytecode": "0x60806040526127106004556005805560006008553480156200002057600080fd5b5033600160006101000a81548173ffffffffffffffffffffffffffffffffffffffff021916908373ffffffffffffffffffffffffffffffffffffffff16021790555030600260006101000a81548173ffffffffffffffffffffffffffffffffffffffff021916908373ffffffffffffffffffffffffffffffffffffffff160217905550600454604051620000b49062000123565b620000c091906200014c565b604051809103906000f080158015620000dd573d6000803e3d6000fd5b506000806101000a81548173ffffffffffffffffffffffffffffffffffffffff021916908373ffffffffffffffffffffffffffffffffffffffff16021790555062000169565b6116eb8062001c0c83390190565b6000819050919050565b620001468162000131565b82525050565b60006020820190506200016360008301846200013b565b92915050565b611a9380620001796000396000f3fe6080604052600436106100dd5760003560e01c80636b31ee011161007f5780637e1f2bb8116100595780637e1f2bb81461026e5780638da5cb5b14610297578063966b3514146102c2578063b12aa6a4146102ed576100dd565b80636b31ee01146101db57806370a082311461020657806370b90e7d14610243576100dd565b80632940f028116100bb5780632940f028146101405780632f3666371461015c5780633940e9ee1461018557806369bb4dc2146101b0576100dd565b80630752881a146100e25780631209b1f6146100fe578063188af65714610129575b600080fd5b6100fc60048036038101906100f79190611123565b610318565b005b34801561010a57600080fd5b506101136104f3565b6040516101209190611172565b60405180910390f35b34801561013557600080fd5b5061013e6104f9565b005b61015a6004803603810190610155919061118d565b6107d0565b005b34801561016857600080fd5b50610183600480360381019061017e919061118d565b61097f565b005b34801561019157600080fd5b5061019a610c36565b6040516101a79190611172565b60405180910390f35b3480156101bc57600080fd5b506101c5610c3c565b6040516101d29190611172565b60405180910390f35b3480156101e757600080fd5b506101f0610cde565b6040516101fd9190611172565b60405180910390f35b34801561021257600080fd5b5061022d600480360381019061022891906111ba565b610da2565b60405161023a9190611172565b60405180910390f35b34801561024f57600080fd5b50610258610e46565b60405161026591906112a5565b60405180910390f35b34801561027a57600080fd5b506102956004803603810190610290919061118d565b610edb565b005b3480156102a357600080fd5b506102ac610ffb565b6040516102b991906112d6565b60405180910390f35b3480156102ce57600080fd5b506102d7611021565b6040516102e491906112d6565b60405180910390f35b3480156102f957600080fd5b50610302611047565b60405161030f91906112d6565b60405180910390f35b60006103238261106d565b905080341015610368576040517f08c379a000000000000000000000000000000000000000000000000000000000815260040161035f90611374565b60405180910390fd5b6000610372610c3c565b9050828110156103b7576040517f08c379a00000000000000000000000000000000000000000000000000000000081526004016103ae90611406565b60405180910390fd5b600082346103c59190611455565b905060003390508073ffffffffffffffffffffffffffffffffffffffff166108fc839081150290604051600060405180830381858888f19350505050158015610412573d6000803e3d6000fd5b5060008054906101000a900473ffffffffffffffffffffffffffffffffffffffff1673ffffffffffffffffffffffffffffffffffffffff1663a9059cbb87876040518363ffffffff1660e01b815260040161046e929190611489565b6020604051808303816000875af115801561048d573d6000803e3d6000fd5b505050506040513d601f19601f820116820180604052508101906104b191906114ea565b507f6ebf55d0cee4245affe84127b666e1c5c6614cce8e0de4290cc3210d2b83b63086866040516104e3929190611489565b60405180910390a1505050505050565b60055481565b33600160009054906101000a900473ffffffffffffffffffffffffffffffffffffffff1673ffffffffffffffffffffffffffffffffffffffff168173ffffffffffffffffffffffffffffffffffffffff161461058a576040517f08c379a000000000000000000000000000000000000000000000000000000000815260040161058190611589565b60405180910390fd5b60006009805490509050600181116105d7576040517f08c379a00000000000000000000000000000000000000000000000000000000081526004016105ce9061161b565b60405180910390fd5b600081426040516020016105eb919061165c565b6040516020818303038152906040528051906020012060001c61060e91906116a6565b9050600060098281548110610626576106256116d7565b5b906000526020600020015490506007600082815260200190815260200160002060009054906101000a900473ffffffffffffffffffffffffffffffffffffffff16600360006101000a81548173ffffffffffffffffffffffffffffffffffffffff021916908373ffffffffffffffffffffffffffffffffffffffff1602179055507fdeb6263f5594b114cabe59bc9533219412cc13883ffdc5fd1a746e19d3725b30816040516106d69190611172565b60405180910390a160008054906101000a900473ffffffffffffffffffffffffffffffffffffffff1673ffffffffffffffffffffffffffffffffffffffff1663579952fc600160009054906101000a900473ffffffffffffffffffffffffffffffffffffffff16600360009054906101000a900473ffffffffffffffffffffffffffffffffffffffff16610768610cde565b6040518463ffffffff1660e01b815260040161078693929190611706565b6020604051808303816000875af11580156107a5573d6000803e3d6000fd5b505050506040513d601f19601f820116820180604052508101906107c991906114ea565b5050505050565b60008111610813576040517f08c379a000000000000000000000000000000000000000000000000000000000815260040161080a906117af565b60405180910390fd5b8061081d33610da2565b101561085e576040517f08c379a000000000000000000000000000000000000000000000000000000000815260040161085590611841565b60405180910390fd5b60008054906101000a900473ffffffffffffffffffffffffffffffffffffffff1673ffffffffffffffffffffffffffffffffffffffff1663579952fc33600260009054906101000a900473ffffffffffffffffffffffffffffffffffffffff16846040518463ffffffff1660e01b81526004016108dd93929190611706565b6020604051808303816000875af11580156108fc573d6000803e3d6000fd5b505050506040513d601f19601f8201168201806040525081019061092091906114ea565b50600061092c8261106d565b905060003390508073ffffffffffffffffffffffffffffffffffffffff166108fc839081150290604051600060405180830381858888f19350505050158015610979573d6000803e3d6000fd5b50505050565b60006005548261098f9190611861565b90508061099b33610da2565b10156109dc576040517f08c379a00000000000000000000000000000000000000000000000000000000081526004016109d39061192d565b60405180910390fd5b60008054906101000a900473ffffffffffffffffffffffffffffffffffffffff1673ffffffffffffffffffffffffffffffffffffffff1663579952fc33600160009054906101000a900473ffffffffffffffffffffffffffffffffffffffff16846040518463ffffffff1660e01b8152600401610a5b93929190611706565b6020604051808303816000875af1158015610a7a573d6000803e3d6000fd5b505050506040513d601f19601f82011682018060405250810190610a9e91906114ea565b5060005b82811015610c315760006127104233600854604051602001610ac693929190611995565b6040516020818303038152906040528051906020012060001c610ae991906116a6565b905060086000815480929190610afe906119d2565b9190505550600660003373ffffffffffffffffffffffffffffffffffffffff1673ffffffffffffffffffffffffffffffffffffffff168152602001908152602001600020819080600181540180825580915050600190039060005260206000200160009091909190915055336007600083815260200190815260200160002060006101000a81548173ffffffffffffffffffffffffffffffffffffffff021916908373ffffffffffffffffffffffffffffffffffffffff16021790555060098190806001815401808255809150506001900390600052602060002001600090919091909150557f1a27c64949bde3c02fbb733037ee5bb7f5114da8e5b808e80f23c1dd5c1a00583382604051610c15929190611489565b60405180910390a1508080610c29906119d2565b915050610aa2565b505050565b60045481565b60008060009054906101000a900473ffffffffffffffffffffffffffffffffffffffff1673ffffffffffffffffffffffffffffffffffffffff166370a08231306040518263ffffffff1660e01b8152600401610c9891906112d6565b602060405180830381865afa158015610cb5573d6000803e3d6000fd5b505050506040513d601f19601f82011682018060405250810190610cd99190611a30565b905090565b60008060009054906101000a900473ffffffffffffffffffffffffffffffffffffffff1673ffffffffffffffffffffffffffffffffffffffff166370a08231600160009054906101000a900473ffffffffffffffffffffffffffffffffffffffff166040518263ffffffff1660e01b8152600401610d5c91906112d6565b602060405180830381865afa158015610d79573d6000803e3d6000fd5b505050506040513d601f19601f82011682018060405250810190610d9d9190611a30565b905090565b60008060009054906101000a900473ffffffffffffffffffffffffffffffffffffffff1673ffffffffffffffffffffffffffffffffffffffff166370a08231836040518263ffffffff1660e01b8152600401610dfe91906112d6565b602060405180830381865afa158015610e1b573d6000803e3d6000fd5b505050506040513d601f19601f82011682018060405250810190610e3f9190611a30565b9050919050565b6060600660003373ffffffffffffffffffffffffffffffffffffffff1673ffffffffffffffffffffffffffffffffffffffff168152602001908152602001600020805480602002602001604051908101604052809291908181526020018280548015610ed157602002820191906000526020600020905b815481526020019060010190808311610ebd575b5050505050905090565b33600160009054906101000a900473ffffffffffffffffffffffffffffffffffffffff1673ffffffffffffffffffffffffffffffffffffffff168173ffffffffffffffffffffffffffffffffffffffff1614610f6c576040517f08c379a0000000000000000000000000000000000000000000000000000000008152600401610f6390611589565b60405180910390fd5b60008054906101000a900473ffffffffffffffffffffffffffffffffffffffff1673ffffffffffffffffffffffffffffffffffffffff16631d43cc98836040518263ffffffff1660e01b8152600401610fc59190611172565b600060405180830381600087803b158015610fdf57600080fd5b505af1158015610ff3573d6000803e3d6000fd5b505050505050565b600160009054906101000a900473ffffffffffffffffffffffffffffffffffffffff1681565b600260009054906101000a900473ffffffffffffffffffffffffffffffffffffffff1681565b600360009054906101000a900473ffffffffffffffffffffffffffffffffffffffff1681565b60006706f05b59d3b20000826110839190611861565b9050919050565b600080fd5b600073ffffffffffffffffffffffffffffffffffffffff82169050919050565b60006110ba8261108f565b9050919050565b6110ca816110af565b81146110d557600080fd5b50565b6000813590506110e7816110c1565b92915050565b6000819050919050565b611100816110ed565b811461110b57600080fd5b50565b60008135905061111d816110f7565b92915050565b6000806040838503121561113a5761113961108a565b5b6000611148858286016110d8565b92505060206111598582860161110e565b9150509250929050565b61116c816110ed565b82525050565b60006020820190506111876000830184611163565b92915050565b6000602082840312156111a3576111a261108a565b5b60006111b18482850161110e565b91505092915050565b6000602082840312156111d0576111cf61108a565b5b60006111de848285016110d8565b91505092915050565b600081519050919050565b600082825260208201905092915050565b6000819050602082019050919050565b61121c816110ed565b82525050565b600061122e8383611213565b60208301905092915050565b6000602082019050919050565b6000611252826111e7565b61125c81856111f2565b935061126783611203565b8060005b8381101561129857815161127f8882611222565b975061128a8361123a565b92505060018101905061126b565b5085935050505092915050565b600060208201905081810360008301526112bf8184611247565b905092915050565b6112d0816110af565b82525050565b60006020820190506112eb60008301846112c7565b92915050565b600082825260208201905092915050565b7f596f7520646f6e2774206861766520656e6f75676820657468657220746f206260008201527f7579207468697320616d6f756e74206f6620746f6b656e730000000000000000602082015250565b600061135e6038836112f1565b915061136982611302565b604082019050919050565b6000602082019050818103600083015261138d81611351565b9050919050565b7f546865726520617265206e6f7420656e6f75676820746f6b656e73206176616960008201527f6c61626c65000000000000000000000000000000000000000000000000000000602082015250565b60006113f06025836112f1565b91506113fb82611394565b604082019050919050565b6000602082019050818103600083015261141f816113e3565b9050919050565b7f4e487b7100000000000000000000000000000000000000000000000000000000600052601160045260246000fd5b6000611460826110ed565b915061146b836110ed565b92508282101561147e5761147d611426565b5b828203905092915050565b600060408201905061149e60008301856112c7565b6114ab6020830184611163565b9392505050565b60008115159050919050565b6114c7816114b2565b81146114d257600080fd5b50565b6000815190506114e4816114be565b92915050565b600060208284031215611500576114ff61108a565b5b600061150e848285016114d5565b91505092915050565b7f546869732066756e6374696f6e206973207265737472696374656420746f207460008201527f686520636f6e7472616374206f776e6572000000000000000000000000000000602082015250565b60006115736031836112f1565b915061157e82611517565b604082019050919050565b600060208201905081810360008301526115a281611566565b9050919050565b7f546865726520617265206e6f7420656e6f756768207469636b65747320746f2060008201527f67656e657261746520612077696e6e6572000000000000000000000000000000602082015250565b60006116056031836112f1565b9150611610826115a9565b604082019050919050565b60006020820190508181036000830152611634816115f8565b9050919050565b6000819050919050565b611656611651826110ed565b61163b565b82525050565b60006116688284611645565b60208201915081905092915050565b7f4e487b7100000000000000000000000000000000000000000000000000000000600052601260045260246000fd5b60006116b1826110ed565b91506116bc836110ed565b9250826116cc576116cb611677565b5b828206905092915050565b7f4e487b7100000000000000000000000000000000000000000000000000000000600052603260045260246000fd5b600060608201905061171b60008301866112c7565b61172860208301856112c7565b6117356040830184611163565b949350505050565b7f596f752063616e277420636173686f75742030206f72206e656761746976652060008201527f746f6b656e730000000000000000000000000000000000000000000000000000602082015250565b60006117996026836112f1565b91506117a48261173d565b604082019050919050565b600060208201905081810360008301526117c88161178c565b9050919050565b7f596f7520646f6e2774206861766520656e6f75676820746f6b656e7320746f2060008201527f636173686f757400000000000000000000000000000000000000000000000000602082015250565b600061182b6027836112f1565b9150611836826117cf565b604082019050919050565b6000602082019050818103600083015261185a8161181e565b9050919050565b600061186c826110ed565b9150611877836110ed565b9250817fffffffffffffffffffffffffffffffffffffffffffffffffffffffffffffffff04831182151516156118b0576118af611426565b5b828202905092915050565b7f596f7520646f6e2774206861766520656e6f75676820746f6b656e7320746f2060008201527f627579207468697320616d6f756e74206f66207469636b657473000000000000602082015250565b6000611917603a836112f1565b9150611922826118bb565b604082019050919050565b600060208201905081810360008301526119468161190a565b9050919050565b60008160601b9050919050565b60006119658261194d565b9050919050565b60006119778261195a565b9050919050565b61198f61198a826110af565b61196c565b82525050565b60006119a18286611645565b6020820191506119b1828561197e565b6014820191506119c18284611645565b602082019150819050949350505050565b60006119dd826110ed565b91507fffffffffffffffffffffffffffffffffffffffffffffffffffffffffffffffff821415611a1057611a0f611426565b5b600182019050919050565b600081519050611a2a816110f7565b92915050565b600060208284031215611a4657611a4561108a565b5b6000611a5484828501611a1b565b9150509291505056fea2646970667358221220e93dd11ee2cb4bc04e93ba4fb33265f60f49a22e90e68476fbec18265638070664736f6c634300080b003360806040523480156200001157600080fd5b50604051620016eb380380620016eb83398181016040528101906200003791906200012d565b33600360006101000a81548173ffffffffffffffffffffffffffffffffffffffff021916908373ffffffffffffffffffffffffffffffffffffffff16021790555080600281905550600254600080600360009054906101000a900473ffffffffffffffffffffffffffffffffffffffff1673ffffffffffffffffffffffffffffffffffffffff1673ffffffffffffffffffffffffffffffffffffffff16815260200190815260200160002081905550506200015f565b600080fd5b6000819050919050565b6200010781620000f2565b81146200011357600080fd5b50565b6000815190506200012781620000fc565b92915050565b600060208284031215620001465762000145620000ed565b5b6000620001568482850162000116565b91505092915050565b61157c806200016f6000396000f3fe608060405234801561001057600080fd5b50600436106100cf5760003560e01c8063313ce5671161008c5780638da5cb5b116100665780638da5cb5b1461023a57806395d89b4114610258578063a9059cbb14610276578063dd62ed3e146102a6576100cf565b8063313ce567146101bc578063579952fc146101da57806370a082311461020a576100cf565b806306fdde03146100d4578063095ea7b3146100f257806318160ddd146101225780631d43cc981461014057806323b872dd1461015c57806327e235e31461018c575b600080fd5b6100dc6102d6565b6040516100e99190610fdf565b60405180910390f35b61010c6004803603810190610107919061109a565b61030f565b60405161011991906110f5565b60405180910390f35b61012a610401565b604051610137919061111f565b60405180910390f35b61015a6004803603810190610155919061113a565b61040b565b005b61017660048036038101906101719190611167565b610590565b60405161018391906110f5565b60405180910390f35b6101a660048036038101906101a191906111ba565b610977565b6040516101b3919061111f565b60405180910390f35b6101c461098f565b6040516101d19190611203565b60405180910390f35b6101f460048036038101906101ef9190611167565b610994565b60405161020191906110f5565b60405180910390f35b610224600480360381019061021f91906111ba565b610bad565b604051610231919061111f565b60405180910390f35b610242610bf5565b60405161024f919061122d565b60405180910390f35b610260610c1b565b60405161026d9190610fdf565b60405180910390f35b610290600480360381019061028b919061109a565b610c54565b60405161029d91906110f5565b60405180910390f35b6102c060048036038101906102bb9190611248565b610e6c565b6040516102cd919061111f565b60405180910390f35b6040518060400160405280601081526020017f4f7363617220522e432e20546f6b656e0000000000000000000000000000000081525081565b600081600160003373ffffffffffffffffffffffffffffffffffffffff1673ffffffffffffffffffffffffffffffffffffffff16815260200190815260200160002060008573ffffffffffffffffffffffffffffffffffffffff1673ffffffffffffffffffffffffffffffffffffffff168152602001908152602001600020819055508273ffffffffffffffffffffffffffffffffffffffff163373ffffffffffffffffffffffffffffffffffffffff167f8c5be1e5ebec7d5bd14f71427d1e84f3dd0314c0f7b2291e5b200ac8c7c3b925846040516103ef919061111f565b60405180910390a36001905092915050565b6000600254905090565b600360009054906101000a900473ffffffffffffffffffffffffffffffffffffffff1673ffffffffffffffffffffffffffffffffffffffff163373ffffffffffffffffffffffffffffffffffffffff161461049b576040517f08c379a0000000000000000000000000000000000000000000000000000000008152600401610492906112fa565b60405180910390fd5b6104b081600254610ef390919063ffffffff16565b60028190555061052981600080600360009054906101000a900473ffffffffffffffffffffffffffffffffffffffff1673ffffffffffffffffffffffffffffffffffffffff1673ffffffffffffffffffffffffffffffffffffffff16815260200190815260200160002054610ef390919063ffffffff16565b600080600360009054906101000a900473ffffffffffffffffffffffffffffffffffffffff1673ffffffffffffffffffffffffffffffffffffffff1673ffffffffffffffffffffffffffffffffffffffff1681526020019081526020016000208190555050565b6000816000808673ffffffffffffffffffffffffffffffffffffffff1673ffffffffffffffffffffffffffffffffffffffff168152602001908152602001600020541015610613576040517f08c379a000000000000000000000000000000000000000000000000000000000815260040161060a90611366565b60405180910390fd5b81600160008673ffffffffffffffffffffffffffffffffffffffff1673ffffffffffffffffffffffffffffffffffffffff16815260200190815260200160002060003373ffffffffffffffffffffffffffffffffffffffff1673ffffffffffffffffffffffffffffffffffffffff1681526020019081526020016000205410156106d2576040517f08c379a00000000000000000000000000000000000000000000000000000000081526004016106c9906113d2565b60405180910390fd5b610723826000808773ffffffffffffffffffffffffffffffffffffffff1673ffffffffffffffffffffffffffffffffffffffff16815260200190815260200160002054610f1f90919063ffffffff16565b6000808673ffffffffffffffffffffffffffffffffffffffff1673ffffffffffffffffffffffffffffffffffffffff168152602001908152602001600020819055506107f482600160008773ffffffffffffffffffffffffffffffffffffffff1673ffffffffffffffffffffffffffffffffffffffff16815260200190815260200160002060003373ffffffffffffffffffffffffffffffffffffffff1673ffffffffffffffffffffffffffffffffffffffff16815260200190815260200160002054610f1f90919063ffffffff16565b600160008673ffffffffffffffffffffffffffffffffffffffff1673ffffffffffffffffffffffffffffffffffffffff16815260200190815260200160002060003373ffffffffffffffffffffffffffffffffffffffff1673ffffffffffffffffffffffffffffffffffffffff168152602001908152602001600020819055506108c5826000808673ffffffffffffffffffffffffffffffffffffffff1673ffffffffffffffffffffffffffffffffffffffff16815260200190815260200160002054610ef390919063ffffffff16565b6000808573ffffffffffffffffffffffffffffffffffffffff1673ffffffffffffffffffffffffffffffffffffffff168152602001908152602001600020819055508273ffffffffffffffffffffffffffffffffffffffff168473ffffffffffffffffffffffffffffffffffffffff167fddf252ad1be2c89b69c2b068fc378daa952ba7f163c4a11628f55a4df523b3ef84604051610964919061111f565b60405180910390a3600190509392505050565b60006020528060005260406000206000915090505481565b600281565b60008060008573ffffffffffffffffffffffffffffffffffffffff1673ffffffffffffffffffffffffffffffffffffffff16815260200190815260200160002054821115610a17576040517f08c379a0000000000000000000000000000000000000000000000000000000008152600401610a0e9061143e565b60405180910390fd5b610a68826000808773ffffffffffffffffffffffffffffffffffffffff1673ffffffffffffffffffffffffffffffffffffffff16815260200190815260200160002054610f1f90919063ffffffff16565b6000808673ffffffffffffffffffffffffffffffffffffffff1673ffffffffffffffffffffffffffffffffffffffff16815260200190815260200160002081905550610afb826000808673ffffffffffffffffffffffffffffffffffffffff1673ffffffffffffffffffffffffffffffffffffffff16815260200190815260200160002054610ef390919063ffffffff16565b6000808573ffffffffffffffffffffffffffffffffffffffff1673ffffffffffffffffffffffffffffffffffffffff168152602001908152602001600020819055508273ffffffffffffffffffffffffffffffffffffffff168473ffffffffffffffffffffffffffffffffffffffff167fddf252ad1be2c89b69c2b068fc378daa952ba7f163c4a11628f55a4df523b3ef84604051610b9a919061111f565b60405180910390a3600190509392505050565b60008060008373ffffffffffffffffffffffffffffffffffffffff1673ffffffffffffffffffffffffffffffffffffffff168152602001908152602001600020549050919050565b600360009054906101000a900473ffffffffffffffffffffffffffffffffffffffff1681565b6040518060400160405280600481526020017f4f5243540000000000000000000000000000000000000000000000000000000081525081565b6000816000803373ffffffffffffffffffffffffffffffffffffffff1673ffffffffffffffffffffffffffffffffffffffff168152602001908152602001600020541015610cd7576040517f08c379a0000000000000000000000000000000000000000000000000000000008152600401610cce9061143e565b60405180910390fd5b610d28826000803373ffffffffffffffffffffffffffffffffffffffff1673ffffffffffffffffffffffffffffffffffffffff16815260200190815260200160002054610f1f90919063ffffffff16565b6000803373ffffffffffffffffffffffffffffffffffffffff1673ffffffffffffffffffffffffffffffffffffffff16815260200190815260200160002081905550610dbb826000808673ffffffffffffffffffffffffffffffffffffffff1673ffffffffffffffffffffffffffffffffffffffff16815260200190815260200160002054610ef390919063ffffffff16565b6000808573ffffffffffffffffffffffffffffffffffffffff1673ffffffffffffffffffffffffffffffffffffffff168152602001908152602001600020819055508273ffffffffffffffffffffffffffffffffffffffff163373ffffffffffffffffffffffffffffffffffffffff167fddf252ad1be2c89b69c2b068fc378daa952ba7f163c4a11628f55a4df523b3ef84604051610e5a919061111f565b60405180910390a36001905092915050565b6000600160008473ffffffffffffffffffffffffffffffffffffffff1673ffffffffffffffffffffffffffffffffffffffff16815260200190815260200160002060008373ffffffffffffffffffffffffffffffffffffffff1673ffffffffffffffffffffffffffffffffffffffff16815260200190815260200160002054905092915050565b6000808284610f02919061148d565b905083811015610f1557610f146114e3565b5b8091505092915050565b600082821115610f3257610f316114e3565b5b8183610f3e9190611512565b905092915050565b600081519050919050565b600082825260208201905092915050565b60005b83811015610f80578082015181840152602081019050610f65565b83811115610f8f576000848401525b50505050565b6000601f19601f8301169050919050565b6000610fb182610f46565b610fbb8185610f51565b9350610fcb818560208601610f62565b610fd481610f95565b840191505092915050565b60006020820190508181036000830152610ff98184610fa6565b905092915050565b600080fd5b600073ffffffffffffffffffffffffffffffffffffffff82169050919050565b600061103182611006565b9050919050565b61104181611026565b811461104c57600080fd5b50565b60008135905061105e81611038565b92915050565b6000819050919050565b61107781611064565b811461108257600080fd5b50565b6000813590506110948161106e565b92915050565b600080604083850312156110b1576110b0611001565b5b60006110bf8582860161104f565b92505060206110d085828601611085565b9150509250929050565b60008115159050919050565b6110ef816110da565b82525050565b600060208201905061110a60008301846110e6565b92915050565b61111981611064565b82525050565b60006020820190506111346000830184611110565b92915050565b6000602082840312156111505761114f611001565b5b600061115e84828501611085565b91505092915050565b6000806000606084860312156111805761117f611001565b5b600061118e8682870161104f565b935050602061119f8682870161104f565b92505060406111b086828701611085565b9150509250925092565b6000602082840312156111d0576111cf611001565b5b60006111de8482850161104f565b91505092915050565b600060ff82169050919050565b6111fd816111e7565b82525050565b600060208201905061121860008301846111f4565b92915050565b61122781611026565b82525050565b6000602082019050611242600083018461121e565b92915050565b6000806040838503121561125f5761125e611001565b5b600061126d8582860161104f565b925050602061127e8582860161104f565b9150509250929050565b7f4f6e6c7920636f6e7472616374206f776e65722063616e20696e63726561736560008201527f2074686520737570706c79000000000000000000000000000000000000000000602082015250565b60006112e4602b83610f51565b91506112ef82611288565b604082019050919050565b60006020820190508181036000830152611313816112d7565b9050919050565b7f416c6c6f77657220686173206e6f7420656e6f75676820746f6b656e73000000600082015250565b6000611350601d83610f51565b915061135b8261131a565b602082019050919050565b6000602082019050818103600083015261137f81611343565b9050919050565b7f416c6c6f77616e6365206973206e6f7420656e6f756768000000000000000000600082015250565b60006113bc601783610f51565b91506113c782611386565b602082019050919050565b600060208201905081810360008301526113eb816113af565b9050919050565b7f4e6f7420656e6f75676820746f6b656e73000000000000000000000000000000600082015250565b6000611428601183610f51565b9150611433826113f2565b602082019050919050565b600060208201905081810360008301526114578161141b565b9050919050565b7f4e487b7100000000000000000000000000000000000000000000000000000000600052601160045260246000fd5b600061149882611064565b91506114a383611064565b9250827fffffffffffffffffffffffffffffffffffffffffffffffffffffffffffffffff038211156114d8576114d761145e565b5b828201905092915050565b7f4e487b7100000000000000000000000000000000000000000000000000000000600052600160045260246000fd5b600061151d82611064565b915061152883611064565b92508282101561153b5761153a61145e565b5b82820390509291505056fea2646970667358221220311b8686de7afbd6839977aea54b784ae32fe029b43a2a1588629ceb2f67c92c64736f6c634300080b0033",
  "immutableReferences": {},
  "source": "//SPDX-License-Identifier: MIT\n\npragma solidity >=0.4.4 <0.9.0;\n\n// Importamos el contrato del token\nimport \"./ERC20.sol\";\nimport \"./SafeMath.sol\";\n\n/// @title Lotto\n/// @author Oscar R.C.\n/// @notice Sistema de loteras basado en blockchain y tokens ERC20\n\ncontract Lotto {\n    // *** LIBRERIAS *** //\n    // Declaramos SafeMath para uint\n    using SafeMath for uint;\n\n    // *** VARIABLES *** //\n    // Instancia del contrato Token\n    Token private token;\n\n    // Owner del contrato\n    address public owner;\n    // Direccin del contrato\n    address public contract_address; \n    // Direccin del ganador\n    address public winner_address;\n\n    // Nmero de tokens a crear\n    uint public total_supply = 10000;\n\n    // ** CONSTRUCTOR ** //\n    constructor(){\n        // Establecemos owner del contrato\n        owner = msg.sender;\n\n        // Establecemos la direccin del contrato\n        contract_address = address(this);\n\n        // Inicializamos el contrato Token ERC20\n        token = new Token(total_supply);\n    }\n\n    // ------------------------- TOKEN ------------------------- //\n\n    // ** MODIFICADORES ** //\n    modifier onlyOwner(address _caller){\n        require(_caller == owner, \"This function is restricted to the contract owner\");\n        _;\n    }\n\n    // ** EVENTOS ** //\n    event tokensBought(address buyer, uint amount);\n\n    // *** FUNCIONES *** //\n    // Funcion para establecer el precio del token\n    function tokenPrice(uint _num_tokens) internal pure returns (uint) {\n        return _num_tokens * 0.5 ether;\n    }\n\n    // Funcion para ampliar el numero de tokens\n    function createTokens(uint _num_tokens) public onlyOwner(msg.sender){\n        // Utilizamos el mtodo increaseTotalSupply del contrato Token\n        token.increaseTotalSupply(_num_tokens);\n    }\n\n    // Funcin para obtener el balance de tokens disponibles\n    function availableTokens() public view returns(uint){\n        // Los tokens disponibles son los tokens de los que dispone el address del contrato\n        return token.balanceOf(address(this));\n    }\n\n    // Funcion para comprar tokens\n    function buyTokens(address _to, uint _num_tokens) public payable{\n        // Obtenemos el precio del token\n        uint price = tokenPrice(_num_tokens);\n        // Requerimos que el usuario tenga los eth suficientes\n        require(msg.value >= price, \"You don't have enough ether to buy this amount of tokens\");\n\n        // Obtencin del nmero de tokens disponibles\n        uint balance = availableTokens();\n        // Requerimos que haya tokens disponibles suficientes\n        require(balance >= _num_tokens, \"There are not enough tokens available\");\n\n        // Calculamos las vueltas\n        uint return_value = msg.value - price;\n        // Se devuelve el returnValue al cliente\n        address payable return_address = payable(msg.sender);\n        return_address.transfer(return_value);\n\n        // Transferimos los tokens al usuario\n        token.transfer(_to, _num_tokens);\n\n        // Emitimos el evento\n        emit tokensBought(_to, _num_tokens);\n    }\n\n    // Funcion para obtener el balance de tokens en el bote\n    function jackpot() public view returns(uint){\n        // El bote se guarda en el owner del contrato\n        return token.balanceOf(owner);\n    }\n\n    // Funcion para visualizar tokens disponibles\n    function balanceOf(address _account) public view returns(uint){\n        return token.balanceOf(_account);\n    }\n\n    // ------------------------- LOTERIA ------------------------- //\n\n    // ** VARIABLES ** //\n    // Precio del boleto de lotera. 5 tokens.\n    uint public ticketPrice = 5;\n\n    // Relacin entre usuario y nmeros de los boletos comprados.\n    mapping(address => uint[]) addressTickets;\n\n    // Relacin entre nmero y usuario\n    mapping(uint => address) ticketAddress;\n\n    // Nmero aleatorio para generar boletos\n    uint randNonce = 0; // nonce es un valor que solo se utiliza una vez\n\n    // Registro boletos generados\n    uint []  tickets;\n\n    // ** EVENTOS ** //\n    // Boleto comprado\n    event ticketBought(address buyer, uint ticket);\n\n    // Boleto ganador\n    event winningTicket(uint ticket);\n\n    // ** FUNCIONES ** //\n    // Comprar un boleto de lotera con tokens\n    function buyTickets(uint _num_tickets) public{\n        // Calculamos el precio\n        uint price = _num_tickets * ticketPrice;\n        // Requerimos que el usuario tenga los tokens suficientes\n        require(balanceOf(msg.sender) >= price, \"You don't have enough tokens to buy this amount of tickets\");\n\n        // Transferencia de tokens al owner del contrato (mtodo transfer del contrato token). El bote.\n        token.transferFromTo(msg.sender, owner, price);\n\n        // Asignacin del nmero de boleto aleatorio\n        for(uint i = 0; i < _num_tickets; i++){\n            /*\n                Generamos un nmero aleatorio utilizando el hash de la marca de tiempo actual, la direccin del usuario y un nonce\n                (Nmero que solo se utiliza una vez, para no ejecutar dos veces la misma funcin hash con los mismos parmetros).\n\n                El nonce se incrementa en 1 en cada ejecucin del bucle.\n\n                Finalmente casteamos el hash a uint y lo dividimos entre 10000 para obtener los ltimos 4 dgitos.\n            */\n            uint random = uint(keccak256(abi.encodePacked(block.timestamp, msg.sender, randNonce))) % 10000;\n            randNonce++;\n\n            // Asignamos el nmero a los nmeros del usuario\n            addressTickets[msg.sender].push(random);\n            // Asignamos el nmero a la direccin del usuario\n            ticketAddress[random] = msg.sender;\n            // Aadimos el boleto al array de boletos\n            tickets.push(random);\n\n            // Emitimos el evento de compra\n            emit ticketBought(msg.sender, random);\n        }\n    }\n  \n    // Funcion que permite al usuario ver el nmero de sus boletos\n    function viewTickets() public view returns(uint[] memory){\n        return addressTickets[msg.sender];\n    }\n\n    // Funcion para generar ganador de la lotera e ingresar el premio\n    function generateWinner() public onlyOwner(msg.sender){\n        // Nmero de boletos comprados\n        uint tikets_bought = tickets.length;\n\n        // Requerimos que hay ms de 1 boleto comprado\n        require(tikets_bought > 1, \"There are not enough tickets to generate a winner\");\n\n        // Generamos una posicin aleatoria en el array tickets entre 0 y tickets_bought.\n        // Casteamos dos veces para asegurarnos de que el resultado sea entero\n        uint position = uint(uint(keccak256(abi.encodePacked(block.timestamp))) % tikets_bought);\n        // Obtenemos el ganador\n        uint winner = tickets[position];   \n        winner_address = ticketAddress[winner];   \n        // Emitimos el evento de ganador\n        emit winningTicket(winner);\n\n        // Transferimos los tokens al ganador\n        token.transferFromTo(owner, winner_address, jackpot());\n    }\n\n    function cashoutTokens(uint _num_tokens) public payable{        \n        // Requerimos que el nmero de tokens a convertir sea mayor que cero\n        require(_num_tokens > 0, \"You can't cashout 0 or negative tokens\");\n        // Requerimos que el nmero de tokens a convertir sea menor o igual al nmero de tokens disponibles\n        require(balanceOf(msg.sender) >= _num_tokens, \"You don't have enough tokens to cashout\");\n\n        // Retiramos los tokens de la cuenta del usuario\n        token.transferFromTo(msg.sender, contract_address, _num_tokens);\n                \n        // Calculamos el precio de los tokens\n        uint total = tokenPrice(_num_tokens);\n        // Transferimos el nmero de ethers al usuario. Los ethers se encuentran en la direccin del contrato\n        address payable cashout_address = payable(msg.sender);\n        cashout_address.transfer(total);\n    }\n}",
  "sourcePath": "/mnt/d/Web/learning-dapps/5. Tokens ERC-20/5.5. Dapp lotera ERC20/dapp-lotto/src/truffle/contracts/Lotto.sol",
  "compiler": {
    "name": "solc",
    "version": "0.8.11+commit.d7f03943.Emscripten.clang"
  },
  "schemaVersion": "3.4.4",
  "updatedAt": "2022-04-16T13:11:50.679Z",
  "networkType": "ethereum",
  "devdoc": {
    "author": "Oscar R.C.",
    "kind": "dev",
    "methods": {},
    "title": "Lotto",
    "version": 1
  },
  "userdoc": {
    "kind": "user",
    "methods": {},
    "notice": "Sistema de loteras basado en blockchain y tokens ERC20",
    "version": 1
  }
}