{
  "contractName": "Token",
  "abi": [
    {
      "inputs": [
        {
          "internalType": "uint256",
          "name": "_initialSupply",
          "type": "uint256"
        }
      ],
      "stateMutability": "nonpayable",
      "type": "constructor"
    },
    {
      "anonymous": false,
      "inputs": [
        {
          "indexed": true,
          "internalType": "address",
          "name": "owner",
          "type": "address"
        },
        {
          "indexed": true,
          "internalType": "address",
          "name": "spender",
          "type": "address"
        },
        {
          "indexed": false,
          "internalType": "uint256",
          "name": "value",
          "type": "uint256"
        }
      ],
      "name": "Approval",
      "type": "event"
    },
    {
      "anonymous": false,
      "inputs": [
        {
          "indexed": true,
          "internalType": "address",
          "name": "from",
          "type": "address"
        },
        {
          "indexed": true,
          "internalType": "address",
          "name": "to",
          "type": "address"
        },
        {
          "indexed": false,
          "internalType": "uint256",
          "name": "value",
          "type": "uint256"
        }
      ],
      "name": "Transfer",
      "type": "event"
    },
    {
      "inputs": [
        {
          "internalType": "address",
          "name": "",
          "type": "address"
        }
      ],
      "name": "balances",
      "outputs": [
        {
          "internalType": "uint256",
          "name": "",
          "type": "uint256"
        }
      ],
      "stateMutability": "view",
      "type": "function"
    },
    {
      "inputs": [],
      "name": "decimals",
      "outputs": [
        {
          "internalType": "uint8",
          "name": "",
          "type": "uint8"
        }
      ],
      "stateMutability": "view",
      "type": "function"
    },
    {
      "inputs": [],
      "name": "name",
      "outputs": [
        {
          "internalType": "string",
          "name": "",
          "type": "string"
        }
      ],
      "stateMutability": "view",
      "type": "function"
    },
    {
      "inputs": [],
      "name": "owner",
      "outputs": [
        {
          "internalType": "address",
          "name": "",
          "type": "address"
        }
      ],
      "stateMutability": "view",
      "type": "function"
    },
    {
      "inputs": [],
      "name": "symbol",
      "outputs": [
        {
          "internalType": "string",
          "name": "",
          "type": "string"
        }
      ],
      "stateMutability": "view",
      "type": "function"
    },
    {
      "inputs": [],
      "name": "totalSupply",
      "outputs": [
        {
          "internalType": "uint256",
          "name": "",
          "type": "uint256"
        }
      ],
      "stateMutability": "view",
      "type": "function"
    },
    {
      "inputs": [
        {
          "internalType": "address",
          "name": "_wallet",
          "type": "address"
        }
      ],
      "name": "balanceOf",
      "outputs": [
        {
          "internalType": "uint256",
          "name": "",
          "type": "uint256"
        }
      ],
      "stateMutability": "view",
      "type": "function"
    },
    {
      "inputs": [
        {
          "internalType": "address",
          "name": "_owner",
          "type": "address"
        },
        {
          "internalType": "address",
          "name": "_delegate",
          "type": "address"
        }
      ],
      "name": "allowance",
      "outputs": [
        {
          "internalType": "uint256",
          "name": "",
          "type": "uint256"
        }
      ],
      "stateMutability": "view",
      "type": "function"
    },
    {
      "inputs": [
        {
          "internalType": "address",
          "name": "_recipient",
          "type": "address"
        },
        {
          "internalType": "uint256",
          "name": "_amount",
          "type": "uint256"
        }
      ],
      "name": "transfer",
      "outputs": [
        {
          "internalType": "bool",
          "name": "",
          "type": "bool"
        }
      ],
      "stateMutability": "nonpayable",
      "type": "function"
    },
    {
      "inputs": [
        {
          "internalType": "address",
          "name": "_delegate",
          "type": "address"
        },
        {
          "internalType": "uint256",
          "name": "_amount",
          "type": "uint256"
        }
      ],
      "name": "approve",
      "outputs": [
        {
          "internalType": "bool",
          "name": "",
          "type": "bool"
        }
      ],
      "stateMutability": "nonpayable",
      "type": "function"
    },
    {
      "inputs": [
        {
          "internalType": "address",
          "name": "_owner",
          "type": "address"
        },
        {
          "internalType": "address",
          "name": "_buyer",
          "type": "address"
        },
        {
          "internalType": "uint256",
          "name": "_amount",
          "type": "uint256"
        }
      ],
      "name": "transferFrom",
      "outputs": [
        {
          "internalType": "bool",
          "name": "",
          "type": "bool"
        }
      ],
      "stateMutability": "nonpayable",
      "type": "function"
    },
    {
      "inputs": [
        {
          "internalType": "address",
          "name": "sender",
          "type": "address"
        },
        {
          "internalType": "address",
          "name": "receiver",
          "type": "address"
        },
        {
          "internalType": "uint256",
          "name": "numTokens",
          "type": "uint256"
        }
      ],
      "name": "transferFromTo",
      "outputs": [
        {
          "internalType": "bool",
          "name": "",
          "type": "bool"
        }
      ],
      "stateMutability": "nonpayable",
      "type": "function"
    },
    {
      "inputs": [
        {
          "internalType": "uint256",
          "name": "_amount",
          "type": "uint256"
        }
      ],
      "name": "increaseTotalSupply",
      "outputs": [],
      "stateMutability": "nonpayable",
      "type": "function"
    }
  ],
  "bytecode": "0x60806040523480156200001157600080fd5b50604051620016eb380380620016eb83398181016040528101906200003791906200012d565b33600360006101000a81548173ffffffffffffffffffffffffffffffffffffffff021916908373ffffffffffffffffffffffffffffffffffffffff16021790555080600281905550600254600080600360009054906101000a900473ffffffffffffffffffffffffffffffffffffffff1673ffffffffffffffffffffffffffffffffffffffff1673ffffffffffffffffffffffffffffffffffffffff16815260200190815260200160002081905550506200015f565b600080fd5b6000819050919050565b6200010781620000f2565b81146200011357600080fd5b50565b6000815190506200012781620000fc565b92915050565b600060208284031215620001465762000145620000ed565b5b6000620001568482850162000116565b91505092915050565b61157c806200016f6000396000f3fe608060405234801561001057600080fd5b50600436106100cf5760003560e01c8063313ce5671161008c5780638da5cb5b116100665780638da5cb5b1461023a57806395d89b4114610258578063a9059cbb14610276578063dd62ed3e146102a6576100cf565b8063313ce567146101bc578063579952fc146101da57806370a082311461020a576100cf565b806306fdde03146100d4578063095ea7b3146100f257806318160ddd146101225780631d43cc981461014057806323b872dd1461015c57806327e235e31461018c575b600080fd5b6100dc6102d6565b6040516100e99190610fdf565b60405180910390f35b61010c6004803603810190610107919061109a565b61030f565b60405161011991906110f5565b60405180910390f35b61012a610401565b604051610137919061111f565b60405180910390f35b61015a6004803603810190610155919061113a565b61040b565b005b61017660048036038101906101719190611167565b610590565b60405161018391906110f5565b60405180910390f35b6101a660048036038101906101a191906111ba565b610977565b6040516101b3919061111f565b60405180910390f35b6101c461098f565b6040516101d19190611203565b60405180910390f35b6101f460048036038101906101ef9190611167565b610994565b60405161020191906110f5565b60405180910390f35b610224600480360381019061021f91906111ba565b610bad565b604051610231919061111f565b60405180910390f35b610242610bf5565b60405161024f919061122d565b60405180910390f35b610260610c1b565b60405161026d9190610fdf565b60405180910390f35b610290600480360381019061028b919061109a565b610c54565b60405161029d91906110f5565b60405180910390f35b6102c060048036038101906102bb9190611248565b610e6c565b6040516102cd919061111f565b60405180910390f35b6040518060400160405280601081526020017f4f7363617220522e432e20546f6b656e0000000000000000000000000000000081525081565b600081600160003373ffffffffffffffffffffffffffffffffffffffff1673ffffffffffffffffffffffffffffffffffffffff16815260200190815260200160002060008573ffffffffffffffffffffffffffffffffffffffff1673ffffffffffffffffffffffffffffffffffffffff168152602001908152602001600020819055508273ffffffffffffffffffffffffffffffffffffffff163373ffffffffffffffffffffffffffffffffffffffff167f8c5be1e5ebec7d5bd14f71427d1e84f3dd0314c0f7b2291e5b200ac8c7c3b925846040516103ef919061111f565b60405180910390a36001905092915050565b6000600254905090565b600360009054906101000a900473ffffffffffffffffffffffffffffffffffffffff1673ffffffffffffffffffffffffffffffffffffffff163373ffffffffffffffffffffffffffffffffffffffff161461049b576040517f08c379a0000000000000000000000000000000000000000000000000000000008152600401610492906112fa565b60405180910390fd5b6104b081600254610ef390919063ffffffff16565b60028190555061052981600080600360009054906101000a900473ffffffffffffffffffffffffffffffffffffffff1673ffffffffffffffffffffffffffffffffffffffff1673ffffffffffffffffffffffffffffffffffffffff16815260200190815260200160002054610ef390919063ffffffff16565b600080600360009054906101000a900473ffffffffffffffffffffffffffffffffffffffff1673ffffffffffffffffffffffffffffffffffffffff1673ffffffffffffffffffffffffffffffffffffffff1681526020019081526020016000208190555050565b6000816000808673ffffffffffffffffffffffffffffffffffffffff1673ffffffffffffffffffffffffffffffffffffffff168152602001908152602001600020541015610613576040517f08c379a000000000000000000000000000000000000000000000000000000000815260040161060a90611366565b60405180910390fd5b81600160008673ffffffffffffffffffffffffffffffffffffffff1673ffffffffffffffffffffffffffffffffffffffff16815260200190815260200160002060003373ffffffffffffffffffffffffffffffffffffffff1673ffffffffffffffffffffffffffffffffffffffff1681526020019081526020016000205410156106d2576040517f08c379a00000000000000000000000000000000000000000000000000000000081526004016106c9906113d2565b60405180910390fd5b610723826000808773ffffffffffffffffffffffffffffffffffffffff1673ffffffffffffffffffffffffffffffffffffffff16815260200190815260200160002054610f1f90919063ffffffff16565b6000808673ffffffffffffffffffffffffffffffffffffffff1673ffffffffffffffffffffffffffffffffffffffff168152602001908152602001600020819055506107f482600160008773ffffffffffffffffffffffffffffffffffffffff1673ffffffffffffffffffffffffffffffffffffffff16815260200190815260200160002060003373ffffffffffffffffffffffffffffffffffffffff1673ffffffffffffffffffffffffffffffffffffffff16815260200190815260200160002054610f1f90919063ffffffff16565b600160008673ffffffffffffffffffffffffffffffffffffffff1673ffffffffffffffffffffffffffffffffffffffff16815260200190815260200160002060003373ffffffffffffffffffffffffffffffffffffffff1673ffffffffffffffffffffffffffffffffffffffff168152602001908152602001600020819055506108c5826000808673ffffffffffffffffffffffffffffffffffffffff1673ffffffffffffffffffffffffffffffffffffffff16815260200190815260200160002054610ef390919063ffffffff16565b6000808573ffffffffffffffffffffffffffffffffffffffff1673ffffffffffffffffffffffffffffffffffffffff168152602001908152602001600020819055508273ffffffffffffffffffffffffffffffffffffffff168473ffffffffffffffffffffffffffffffffffffffff167fddf252ad1be2c89b69c2b068fc378daa952ba7f163c4a11628f55a4df523b3ef84604051610964919061111f565b60405180910390a3600190509392505050565b60006020528060005260406000206000915090505481565b600281565b60008060008573ffffffffffffffffffffffffffffffffffffffff1673ffffffffffffffffffffffffffffffffffffffff16815260200190815260200160002054821115610a17576040517f08c379a0000000000000000000000000000000000000000000000000000000008152600401610a0e9061143e565b60405180910390fd5b610a68826000808773ffffffffffffffffffffffffffffffffffffffff1673ffffffffffffffffffffffffffffffffffffffff16815260200190815260200160002054610f1f90919063ffffffff16565b6000808673ffffffffffffffffffffffffffffffffffffffff1673ffffffffffffffffffffffffffffffffffffffff16815260200190815260200160002081905550610afb826000808673ffffffffffffffffffffffffffffffffffffffff1673ffffffffffffffffffffffffffffffffffffffff16815260200190815260200160002054610ef390919063ffffffff16565b6000808573ffffffffffffffffffffffffffffffffffffffff1673ffffffffffffffffffffffffffffffffffffffff168152602001908152602001600020819055508273ffffffffffffffffffffffffffffffffffffffff168473ffffffffffffffffffffffffffffffffffffffff167fddf252ad1be2c89b69c2b068fc378daa952ba7f163c4a11628f55a4df523b3ef84604051610b9a919061111f565b60405180910390a3600190509392505050565b60008060008373ffffffffffffffffffffffffffffffffffffffff1673ffffffffffffffffffffffffffffffffffffffff168152602001908152602001600020549050919050565b600360009054906101000a900473ffffffffffffffffffffffffffffffffffffffff1681565b6040518060400160405280600481526020017f4f5243540000000000000000000000000000000000000000000000000000000081525081565b6000816000803373ffffffffffffffffffffffffffffffffffffffff1673ffffffffffffffffffffffffffffffffffffffff168152602001908152602001600020541015610cd7576040517f08c379a0000000000000000000000000000000000000000000000000000000008152600401610cce9061143e565b60405180910390fd5b610d28826000803373ffffffffffffffffffffffffffffffffffffffff1673ffffffffffffffffffffffffffffffffffffffff16815260200190815260200160002054610f1f90919063ffffffff16565b6000803373ffffffffffffffffffffffffffffffffffffffff1673ffffffffffffffffffffffffffffffffffffffff16815260200190815260200160002081905550610dbb826000808673ffffffffffffffffffffffffffffffffffffffff1673ffffffffffffffffffffffffffffffffffffffff16815260200190815260200160002054610ef390919063ffffffff16565b6000808573ffffffffffffffffffffffffffffffffffffffff1673ffffffffffffffffffffffffffffffffffffffff168152602001908152602001600020819055508273ffffffffffffffffffffffffffffffffffffffff163373ffffffffffffffffffffffffffffffffffffffff167fddf252ad1be2c89b69c2b068fc378daa952ba7f163c4a11628f55a4df523b3ef84604051610e5a919061111f565b60405180910390a36001905092915050565b6000600160008473ffffffffffffffffffffffffffffffffffffffff1673ffffffffffffffffffffffffffffffffffffffff16815260200190815260200160002060008373ffffffffffffffffffffffffffffffffffffffff1673ffffffffffffffffffffffffffffffffffffffff16815260200190815260200160002054905092915050565b6000808284610f02919061148d565b905083811015610f1557610f146114e3565b5b8091505092915050565b600082821115610f3257610f316114e3565b5b8183610f3e9190611512565b905092915050565b600081519050919050565b600082825260208201905092915050565b60005b83811015610f80578082015181840152602081019050610f65565b83811115610f8f576000848401525b50505050565b6000601f19601f8301169050919050565b6000610fb182610f46565b610fbb8185610f51565b9350610fcb818560208601610f62565b610fd481610f95565b840191505092915050565b60006020820190508181036000830152610ff98184610fa6565b905092915050565b600080fd5b600073ffffffffffffffffffffffffffffffffffffffff82169050919050565b600061103182611006565b9050919050565b61104181611026565b811461104c57600080fd5b50565b60008135905061105e81611038565b92915050565b6000819050919050565b61107781611064565b811461108257600080fd5b50565b6000813590506110948161106e565b92915050565b600080604083850312156110b1576110b0611001565b5b60006110bf8582860161104f565b92505060206110d085828601611085565b9150509250929050565b60008115159050919050565b6110ef816110da565b82525050565b600060208201905061110a60008301846110e6565b92915050565b61111981611064565b82525050565b60006020820190506111346000830184611110565b92915050565b6000602082840312156111505761114f611001565b5b600061115e84828501611085565b91505092915050565b6000806000606084860312156111805761117f611001565b5b600061118e8682870161104f565b935050602061119f8682870161104f565b92505060406111b086828701611085565b9150509250925092565b6000602082840312156111d0576111cf611001565b5b60006111de8482850161104f565b91505092915050565b600060ff82169050919050565b6111fd816111e7565b82525050565b600060208201905061121860008301846111f4565b92915050565b61122781611026565b82525050565b6000602082019050611242600083018461121e565b92915050565b6000806040838503121561125f5761125e611001565b5b600061126d8582860161104f565b925050602061127e8582860161104f565b9150509250929050565b7f4f6e6c7920636f6e7472616374206f776e65722063616e20696e63726561736560008201527f2074686520737570706c79000000000000000000000000000000000000000000602082015250565b60006112e4602b83610f51565b91506112ef82611288565b604082019050919050565b60006020820190508181036000830152611313816112d7565b9050919050565b7f416c6c6f77657220686173206e6f7420656e6f75676820746f6b656e73000000600082015250565b6000611350601d83610f51565b915061135b8261131a565b602082019050919050565b6000602082019050818103600083015261137f81611343565b9050919050565b7f416c6c6f77616e6365206973206e6f7420656e6f756768000000000000000000600082015250565b60006113bc601783610f51565b91506113c782611386565b602082019050919050565b600060208201905081810360008301526113eb816113af565b9050919050565b7f4e6f7420656e6f75676820746f6b656e73000000000000000000000000000000600082015250565b6000611428601183610f51565b9150611433826113f2565b602082019050919050565b600060208201905081810360008301526114578161141b565b9050919050565b7f4e487b7100000000000000000000000000000000000000000000000000000000600052601160045260246000fd5b600061149882611064565b91506114a383611064565b9250827fffffffffffffffffffffffffffffffffffffffffffffffffffffffffffffffff038211156114d8576114d761145e565b5b828201905092915050565b7f4e487b7100000000000000000000000000000000000000000000000000000000600052600160045260246000fd5b600061151d82611064565b915061152883611064565b92508282101561153b5761153a61145e565b5b82820390509291505056fea2646970667358221220311b8686de7afbd6839977aea54b784ae32fe029b43a2a1588629ceb2f67c92c64736f6c634300080b0033",
  "immutableReferences": {},
  "source": "//SPDX-License-Identifier: MIT\n\npragma solidity >=0.4.4 <0.9.0;\npragma experimental ABIEncoderV2;\n\nimport \"./SafeMath.sol\";\nimport \"./interface.sol\";\n\n/// @title Token\n/// @author Oscar R.C.\n/// @notice Define un token ERC-20\n\ncontract Token is IERC20{\n    // Declaramos la librera SafeMath para su uso con uints\n    using SafeMath for uint;\n\n    // CONSTANTES\n    // Nombre del token\n    string public constant name = \"Oscar R.C. Token\";\n\n    //Symbolo del token\n    string public constant symbol = \"ORCT\";\n\n    // Indicamos el nmero de decimales del token\n    uint8 public constant decimals = 2;\n\n    // MAPPINGS\n    // Balance de tokens de cada cuenta\n    mapping (address => uint256) public balances;\n\n    // Mapeo de allowances. Ceder tokens a otras direcciones\n    mapping (address => mapping(address => uint)) allowed;\n\n    // VARIABLES\n    // Total supply no es pblica, solo se puede consultar desde el mtodo totalSupply\n    uint256 totalSupply_;\n\n    // ADICIONAL: declaramos el owner del contrato\n    address public owner;\n\n    // CONSTRUCTOR\n    constructor(uint256 _initialSupply){\n        //Inicializamos el owner del contrato;\n        owner = msg.sender;\n\n        //Inicializamos el totalSupply nadie podr modificarlo\n        totalSupply_ = _initialSupply;\n\n        //El owner del contrato es el propietario de todos los tokens en un principio\n        balances[owner] = totalSupply_;\n        \n    }\n\n    // METODOS HEREDADOS\n    function totalSupply() public override view returns (uint256){\n        return totalSupply_;\n    }\n\n    function balanceOf(address _wallet) public override view returns (uint256){\n        return balances[_wallet];\n    }\n\n    function allowance(address _owner, address _delegate) public override view returns (uint256){\n        return allowed[_owner][_delegate];\n    }\n\n    function transfer(address _recipient, uint256 _amount) public override returns (bool){\n        // Requerimos que el emisor de la transferencia tenga tokens suficientes para transferir\n        require(balances[msg.sender] >= _amount, \"Not enough tokens\");\n\n        // Realizamos la transferencia. Primero retiramos y luego aadimos para asegurar consistencia\n        // Quitamos los tokens de la cuenta del emisor\n        balances[msg.sender] = balances[msg.sender].sub(_amount);\n        // Y los aadimos al receptor\n        balances[_recipient] = balances[_recipient].add(_amount);\n\n        // Emitimos el evento de transferencia\n        emit Transfer(msg.sender, _recipient, _amount);\n\n        //Devolvemos true, la transferencia se ha completado correctamente\n        return true;\n    }\n\n    function approve(address _delegate, uint256 _amount) public override returns (bool){\n        // Aceptamos que cierta persona haga uso de tokens en nombre de otro\n        allowed[msg.sender][_delegate] = _amount;\n\n        // Emitimos el evento de aprovacin\n        emit Approval(msg.sender, _delegate, _amount);\n\n        // Opereacin completada con xito\n        return true;\n    }\n\n    function transferFrom(address _owner, address _buyer, uint256 _amount) public override returns (bool){\n        // El propietario tiene que disponer de los tokens\n        require(balances[_owner] >= _amount, \"Allower has not enough tokens\");\n\n        // Debemmos tener allowance para transferir dichos tokens\n        require(allowed[_owner][msg.sender] >= _amount, \"Allowance is not enough\");\n\n        // Realizamos la transferencia\n        // Quitamos los tokens del owner\n        balances[_owner] = balances[_owner].sub(_amount);\n        // Quitamos los tokens del allowance\n        allowed[_owner][msg.sender] = allowed[_owner][msg.sender].sub(_amount);\n        // Transferimos los tokens al receptor\n        balances[_buyer] = balances[_buyer].add(_amount);\n\n        // Emitimos el evento de la transferencia\n        emit Transfer(_owner, _buyer, _amount);\n\n        //Transferencia exitosa\n        return true;\n    }\n\n    function transferFromTo(address sender, address receiver, uint256 numTokens) public returns (bool){\n        require(numTokens <= balances[sender], \"Not enough tokens\");\n        balances[sender] = balances[sender].sub(numTokens);\n        balances[receiver] = balances[receiver].add(numTokens);\n        emit Transfer(sender,receiver,numTokens);\n        return true;\n    }\n\n    // METODOS ADICIONALES\n    // Mtodo para incrementar el total supply\n    function increaseTotalSupply(uint _amount) public{\n        //Solo el owner puede generar tokens\n        require(msg.sender == owner, \"Only contract owner can increase the supply\");\n        \n        // Incrementamos el total supply utilizando safeMAth\n        totalSupply_ = totalSupply_.add(_amount);\n\n        // Atribumos los tokens al propietario\n        balances[owner] = balances[owner].add(_amount);\n    }\n}",
  "sourcePath": "/mnt/d/Web/learning-dapps/5. Tokens ERC-20/5.5. Dapp lotera ERC20/dapp-lotto/src/truffle/contracts/ERC20.sol",
  "compiler": {
    "name": "solc",
    "version": "0.8.11+commit.d7f03943.Emscripten.clang"
  },
  "schemaVersion": "3.4.4",
  "updatedAt": "2022-04-16T10:22:46.836Z",
  "devdoc": {
    "author": "Oscar R.C.",
    "kind": "dev",
    "methods": {},
    "title": "Token",
    "version": 1
  },
  "userdoc": {
    "kind": "user",
    "methods": {},
    "notice": "Define un token ERC-20",
    "version": 1
  }
}