{
  "contractName": "Main",
  "abi": [
    {
      "inputs": [],
      "stateMutability": "nonpayable",
      "type": "constructor"
    },
    {
      "inputs": [],
      "name": "contrato",
      "outputs": [
        {
          "internalType": "address",
          "name": "",
          "type": "address"
        }
      ],
      "stateMutability": "view",
      "type": "function",
      "constant": true
    },
    {
      "inputs": [],
      "name": "owner",
      "outputs": [
        {
          "internalType": "address",
          "name": "",
          "type": "address"
        }
      ],
      "stateMutability": "view",
      "type": "function",
      "constant": true
    },
    {
      "inputs": [],
      "name": "getOwner",
      "outputs": [
        {
          "internalType": "address",
          "name": "",
          "type": "address"
        }
      ],
      "stateMutability": "view",
      "type": "function",
      "constant": true
    },
    {
      "inputs": [],
      "name": "getContract",
      "outputs": [
        {
          "internalType": "address",
          "name": "",
          "type": "address"
        }
      ],
      "stateMutability": "view",
      "type": "function",
      "constant": true
    },
    {
      "inputs": [
        {
          "internalType": "address",
          "name": "_destinatario",
          "type": "address"
        },
        {
          "internalType": "uint256",
          "name": "_numTokens",
          "type": "uint256"
        }
      ],
      "name": "send_tokens",
      "outputs": [],
      "stateMutability": "payable",
      "type": "function",
      "payable": true
    },
    {
      "inputs": [
        {
          "internalType": "uint256",
          "name": "_numTokens",
          "type": "uint256"
        }
      ],
      "name": "GeneraTokens",
      "outputs": [],
      "stateMutability": "nonpayable",
      "type": "function"
    },
    {
      "inputs": [
        {
          "internalType": "address",
          "name": "_direccion",
          "type": "address"
        }
      ],
      "name": "balance_direccion",
      "outputs": [
        {
          "internalType": "uint256",
          "name": "",
          "type": "uint256"
        }
      ],
      "stateMutability": "view",
      "type": "function",
      "constant": true
    },
    {
      "inputs": [],
      "name": "balance_total",
      "outputs": [
        {
          "internalType": "uint256",
          "name": "",
          "type": "uint256"
        }
      ],
      "stateMutability": "view",
      "type": "function",
      "constant": true
    }
  ],
  "bytecode": "0x608060405234801561001057600080fd5b506127106040516100209061010d565b61002a919061016a565b604051809103906000f080158015610046573d6000803e3d6000fd5b506000806101000a81548173ffffffffffffffffffffffffffffffffffffffff021916908373ffffffffffffffffffffffffffffffffffffffff16021790555033600160006101000a81548173ffffffffffffffffffffffffffffffffffffffff021916908373ffffffffffffffffffffffffffffffffffffffff16021790555030600260006101000a81548173ffffffffffffffffffffffffffffffffffffffff021916908373ffffffffffffffffffffffffffffffffffffffff160217905550610185565b6114878062000e1483390190565b6000819050919050565b6000819050919050565b6000819050919050565b600061015461014f61014a8461011b565b61012f565b610125565b9050919050565b61016481610139565b82525050565b600060208201905061017f600083018461015b565b92915050565b610c7f80620001956000396000f3fe60806040526004361061007b5760003560e01c8063958f85bd1161004e578063958f85bd1461012a578063a787254714610155578063c473de2b14610171578063e1a01e67146101ae5761007b565b80631246f6e214610080578063531e9236146100a9578063893d20e8146100d45780638da5cb5b146100ff575b600080fd5b34801561008c57600080fd5b506100a760048036038101906100a2919061073d565b6101d9565b005b3480156100b557600080fd5b506100be6102f7565b6040516100cb9190610779565b60405180910390f35b3480156100e057600080fd5b506100e96103bb565b6040516100f691906107d5565b60405180910390f35b34801561010b57600080fd5b506101146103e5565b60405161012191906107d5565b60405180910390f35b34801561013657600080fd5b5061013f61040b565b60405161014c91906107d5565b60405180910390f35b61016f600480360381019061016a919061081c565b610435565b005b34801561017d57600080fd5b506101986004803603810190610193919061085c565b61061b565b6040516101a59190610779565b60405180910390f35b3480156101ba57600080fd5b506101c36106bf565b6040516101d091906107d5565b60405180910390f35b600160009054906101000a900473ffffffffffffffffffffffffffffffffffffffff1673ffffffffffffffffffffffffffffffffffffffff163373ffffffffffffffffffffffffffffffffffffffff1614610269576040517f08c379a00000000000000000000000000000000000000000000000000000000081526004016102609061090c565b60405180910390fd5b60008054906101000a900473ffffffffffffffffffffffffffffffffffffffff1673ffffffffffffffffffffffffffffffffffffffff16631d43cc98826040518263ffffffff1660e01b81526004016102c29190610779565b600060405180830381600087803b1580156102dc57600080fd5b505af11580156102f0573d6000803e3d6000fd5b5050505050565b60008060009054906101000a900473ffffffffffffffffffffffffffffffffffffffff1673ffffffffffffffffffffffffffffffffffffffff166370a08231600260009054906101000a900473ffffffffffffffffffffffffffffffffffffffff166040518263ffffffff1660e01b815260040161037591906107d5565b602060405180830381865afa158015610392573d6000803e3d6000fd5b505050506040513d601f19601f820116820180604052508101906103b69190610941565b905090565b6000600160009054906101000a900473ffffffffffffffffffffffffffffffffffffffff16905090565b600160009054906101000a900473ffffffffffffffffffffffffffffffffffffffff1681565b6000600260009054906101000a900473ffffffffffffffffffffffffffffffffffffffff16905090565b600a811115610479576040517f08c379a0000000000000000000000000000000000000000000000000000000008152600401610470906109e0565b60405180910390fd5b6000610484826106e5565b9050803410156104c9576040517f08c379a00000000000000000000000000000000000000000000000000000000081526004016104c090610a72565b60405180910390fd5b600081346104d79190610ac1565b905060003390508073ffffffffffffffffffffffffffffffffffffffff166108fc839081150290604051600060405180830381858888f19350505050158015610524573d6000803e3d6000fd5b50600061052f6102f7565b905080851115610574576040517f08c379a000000000000000000000000000000000000000000000000000000000815260040161056b90610b41565b60405180910390fd5b60008054906101000a900473ffffffffffffffffffffffffffffffffffffffff1673ffffffffffffffffffffffffffffffffffffffff1663a9059cbb87876040518363ffffffff1660e01b81526004016105cf929190610b61565b6020604051808303816000875af11580156105ee573d6000803e3d6000fd5b505050506040513d601f19601f820116820180604052508101906106129190610bc2565b50505050505050565b60008060009054906101000a900473ffffffffffffffffffffffffffffffffffffffff1673ffffffffffffffffffffffffffffffffffffffff166370a08231836040518263ffffffff1660e01b815260040161067791906107d5565b602060405180830381865afa158015610694573d6000803e3d6000fd5b505050506040513d601f19601f820116820180604052508101906106b89190610941565b9050919050565b600260009054906101000a900473ffffffffffffffffffffffffffffffffffffffff1681565b6000670de0b6b3a7640000826106fb9190610bef565b9050919050565b600080fd5b6000819050919050565b61071a81610707565b811461072557600080fd5b50565b60008135905061073781610711565b92915050565b60006020828403121561075357610752610702565b5b600061076184828501610728565b91505092915050565b61077381610707565b82525050565b600060208201905061078e600083018461076a565b92915050565b600073ffffffffffffffffffffffffffffffffffffffff82169050919050565b60006107bf82610794565b9050919050565b6107cf816107b4565b82525050565b60006020820190506107ea60008301846107c6565b92915050565b6107f9816107b4565b811461080457600080fd5b50565b600081359050610816816107f0565b92915050565b6000806040838503121561083357610832610702565b5b600061084185828601610807565b925050602061085285828601610728565b9150509250929050565b60006020828403121561087257610871610702565b5b600061088084828501610807565b91505092915050565b600082825260208201905092915050565b7f4e6f207469656e6573207065726d69736f73207061726120657374612066756e60008201527f63696f6e00000000000000000000000000000000000000000000000000000000602082015250565b60006108f6602483610889565b91506109018261089a565b604082019050919050565b60006020820190508181036000830152610925816108e9565b9050919050565b60008151905061093b81610711565b92915050565b60006020828403121561095757610956610702565b5b60006109658482850161092c565b91505092915050565b7f4c612063616e746964616420646520746f6b656e732065732064656d6173696160008201527f646f20616c74612e000000000000000000000000000000000000000000000000602082015250565b60006109ca602883610889565b91506109d58261096e565b604082019050919050565b600060208201905081810360008301526109f9816109bd565b9050919050565b7f436f6d707261206d656e6f7320746f6b656e73206f207061676120636f6e206d60008201527f6173206574686572730000000000000000000000000000000000000000000000602082015250565b6000610a5c602983610889565b9150610a6782610a00565b604082019050919050565b60006020820190508181036000830152610a8b81610a4f565b9050919050565b7f4e487b7100000000000000000000000000000000000000000000000000000000600052601160045260246000fd5b6000610acc82610707565b9150610ad783610707565b925082821015610aea57610ae9610a92565b5b828203905092915050565b7f436f6d70726120756e206e756d65726f206d656e6f7220646520746f6b656e73600082015250565b6000610b2b602083610889565b9150610b3682610af5565b602082019050919050565b60006020820190508181036000830152610b5a81610b1e565b9050919050565b6000604082019050610b7660008301856107c6565b610b83602083018461076a565b9392505050565b60008115159050919050565b610b9f81610b8a565b8114610baa57600080fd5b50565b600081519050610bbc81610b96565b92915050565b600060208284031215610bd857610bd7610702565b5b6000610be684828501610bad565b91505092915050565b6000610bfa82610707565b9150610c0583610707565b9250817fffffffffffffffffffffffffffffffffffffffffffffffffffffffffffffffff0483118215151615610c3e57610c3d610a92565b5b82820290509291505056fea264697066735822122032119147a8dfeda024c4760e596468932e30e5fedb708cca3152a617f3709e1c64736f6c634300080b003360806040523480156200001157600080fd5b50604051620014873803806200148783398181016040528101906200003791906200012d565b33600360006101000a81548173ffffffffffffffffffffffffffffffffffffffff021916908373ffffffffffffffffffffffffffffffffffffffff16021790555080600281905550600254600080600360009054906101000a900473ffffffffffffffffffffffffffffffffffffffff1673ffffffffffffffffffffffffffffffffffffffff1673ffffffffffffffffffffffffffffffffffffffff16815260200190815260200160002081905550506200015f565b600080fd5b6000819050919050565b6200010781620000f2565b81146200011357600080fd5b50565b6000815190506200012781620000fc565b92915050565b600060208284031215620001465762000145620000ed565b5b6000620001568482850162000116565b91505092915050565b611318806200016f6000396000f3fe608060405234801561001057600080fd5b50600436106100b45760003560e01c8063313ce56711610071578063313ce567146101a157806370a08231146101bf5780638da5cb5b146101ef57806395d89b411461020d578063a9059cbb1461022b578063dd62ed3e1461025b576100b4565b806306fdde03146100b9578063095ea7b3146100d757806318160ddd146101075780631d43cc981461012557806323b872dd1461014157806327e235e314610171575b600080fd5b6100c161028b565b6040516100ce9190610d7b565b60405180910390f35b6100f160048036038101906100ec9190610e36565b6102c4565b6040516100fe9190610e91565b60405180910390f35b61010f6103b6565b60405161011c9190610ebb565b60405180910390f35b61013f600480360381019061013a9190610ed6565b6103c0565b005b61015b60048036038101906101569190610f03565b610545565b6040516101689190610e91565b60405180910390f35b61018b60048036038101906101869190610f56565b61092c565b6040516101989190610ebb565b60405180910390f35b6101a9610944565b6040516101b69190610f9f565b60405180910390f35b6101d960048036038101906101d49190610f56565b610949565b6040516101e69190610ebb565b60405180910390f35b6101f7610991565b6040516102049190610fc9565b60405180910390f35b6102156109b7565b6040516102229190610d7b565b60405180910390f35b61024560048036038101906102409190610e36565b6109f0565b6040516102529190610e91565b60405180910390f35b61027560048036038101906102709190610fe4565b610c08565b6040516102829190610ebb565b60405180910390f35b6040518060400160405280601081526020017f4f7363617220522e432e20546f6b656e0000000000000000000000000000000081525081565b600081600160003373ffffffffffffffffffffffffffffffffffffffff1673ffffffffffffffffffffffffffffffffffffffff16815260200190815260200160002060008573ffffffffffffffffffffffffffffffffffffffff1673ffffffffffffffffffffffffffffffffffffffff168152602001908152602001600020819055508273ffffffffffffffffffffffffffffffffffffffff163373ffffffffffffffffffffffffffffffffffffffff167f8c5be1e5ebec7d5bd14f71427d1e84f3dd0314c0f7b2291e5b200ac8c7c3b925846040516103a49190610ebb565b60405180910390a36001905092915050565b6000600254905090565b600360009054906101000a900473ffffffffffffffffffffffffffffffffffffffff1673ffffffffffffffffffffffffffffffffffffffff163373ffffffffffffffffffffffffffffffffffffffff1614610450576040517f08c379a000000000000000000000000000000000000000000000000000000000815260040161044790611096565b60405180910390fd5b61046581600254610c8f90919063ffffffff16565b6002819055506104de81600080600360009054906101000a900473ffffffffffffffffffffffffffffffffffffffff1673ffffffffffffffffffffffffffffffffffffffff1673ffffffffffffffffffffffffffffffffffffffff16815260200190815260200160002054610c8f90919063ffffffff16565b600080600360009054906101000a900473ffffffffffffffffffffffffffffffffffffffff1673ffffffffffffffffffffffffffffffffffffffff1673ffffffffffffffffffffffffffffffffffffffff1681526020019081526020016000208190555050565b6000816000808673ffffffffffffffffffffffffffffffffffffffff1673ffffffffffffffffffffffffffffffffffffffff1681526020019081526020016000205410156105c8576040517f08c379a00000000000000000000000000000000000000000000000000000000081526004016105bf90611102565b60405180910390fd5b81600160008673ffffffffffffffffffffffffffffffffffffffff1673ffffffffffffffffffffffffffffffffffffffff16815260200190815260200160002060003373ffffffffffffffffffffffffffffffffffffffff1673ffffffffffffffffffffffffffffffffffffffff168152602001908152602001600020541015610687576040517f08c379a000000000000000000000000000000000000000000000000000000000815260040161067e9061116e565b60405180910390fd5b6106d8826000808773ffffffffffffffffffffffffffffffffffffffff1673ffffffffffffffffffffffffffffffffffffffff16815260200190815260200160002054610cbb90919063ffffffff16565b6000808673ffffffffffffffffffffffffffffffffffffffff1673ffffffffffffffffffffffffffffffffffffffff168152602001908152602001600020819055506107a982600160008773ffffffffffffffffffffffffffffffffffffffff1673ffffffffffffffffffffffffffffffffffffffff16815260200190815260200160002060003373ffffffffffffffffffffffffffffffffffffffff1673ffffffffffffffffffffffffffffffffffffffff16815260200190815260200160002054610cbb90919063ffffffff16565b600160008673ffffffffffffffffffffffffffffffffffffffff1673ffffffffffffffffffffffffffffffffffffffff16815260200190815260200160002060003373ffffffffffffffffffffffffffffffffffffffff1673ffffffffffffffffffffffffffffffffffffffff1681526020019081526020016000208190555061087a826000808673ffffffffffffffffffffffffffffffffffffffff1673ffffffffffffffffffffffffffffffffffffffff16815260200190815260200160002054610c8f90919063ffffffff16565b6000808573ffffffffffffffffffffffffffffffffffffffff1673ffffffffffffffffffffffffffffffffffffffff168152602001908152602001600020819055508273ffffffffffffffffffffffffffffffffffffffff168473ffffffffffffffffffffffffffffffffffffffff167fddf252ad1be2c89b69c2b068fc378daa952ba7f163c4a11628f55a4df523b3ef846040516109199190610ebb565b60405180910390a3600190509392505050565b60006020528060005260406000206000915090505481565b600281565b60008060008373ffffffffffffffffffffffffffffffffffffffff1673ffffffffffffffffffffffffffffffffffffffff168152602001908152602001600020549050919050565b600360009054906101000a900473ffffffffffffffffffffffffffffffffffffffff1681565b6040518060400160405280600481526020017f4f5243540000000000000000000000000000000000000000000000000000000081525081565b6000816000803373ffffffffffffffffffffffffffffffffffffffff1673ffffffffffffffffffffffffffffffffffffffff168152602001908152602001600020541015610a73576040517f08c379a0000000000000000000000000000000000000000000000000000000008152600401610a6a906111da565b60405180910390fd5b610ac4826000803373ffffffffffffffffffffffffffffffffffffffff1673ffffffffffffffffffffffffffffffffffffffff16815260200190815260200160002054610cbb90919063ffffffff16565b6000803373ffffffffffffffffffffffffffffffffffffffff1673ffffffffffffffffffffffffffffffffffffffff16815260200190815260200160002081905550610b57826000808673ffffffffffffffffffffffffffffffffffffffff1673ffffffffffffffffffffffffffffffffffffffff16815260200190815260200160002054610c8f90919063ffffffff16565b6000808573ffffffffffffffffffffffffffffffffffffffff1673ffffffffffffffffffffffffffffffffffffffff168152602001908152602001600020819055508273ffffffffffffffffffffffffffffffffffffffff163373ffffffffffffffffffffffffffffffffffffffff167fddf252ad1be2c89b69c2b068fc378daa952ba7f163c4a11628f55a4df523b3ef84604051610bf69190610ebb565b60405180910390a36001905092915050565b6000600160008473ffffffffffffffffffffffffffffffffffffffff1673ffffffffffffffffffffffffffffffffffffffff16815260200190815260200160002060008373ffffffffffffffffffffffffffffffffffffffff1673ffffffffffffffffffffffffffffffffffffffff16815260200190815260200160002054905092915050565b6000808284610c9e9190611229565b905083811015610cb157610cb061127f565b5b8091505092915050565b600082821115610cce57610ccd61127f565b5b8183610cda91906112ae565b905092915050565b600081519050919050565b600082825260208201905092915050565b60005b83811015610d1c578082015181840152602081019050610d01565b83811115610d2b576000848401525b50505050565b6000601f19601f8301169050919050565b6000610d4d82610ce2565b610d578185610ced565b9350610d67818560208601610cfe565b610d7081610d31565b840191505092915050565b60006020820190508181036000830152610d958184610d42565b905092915050565b600080fd5b600073ffffffffffffffffffffffffffffffffffffffff82169050919050565b6000610dcd82610da2565b9050919050565b610ddd81610dc2565b8114610de857600080fd5b50565b600081359050610dfa81610dd4565b92915050565b6000819050919050565b610e1381610e00565b8114610e1e57600080fd5b50565b600081359050610e3081610e0a565b92915050565b60008060408385031215610e4d57610e4c610d9d565b5b6000610e5b85828601610deb565b9250506020610e6c85828601610e21565b9150509250929050565b60008115159050919050565b610e8b81610e76565b82525050565b6000602082019050610ea66000830184610e82565b92915050565b610eb581610e00565b82525050565b6000602082019050610ed06000830184610eac565b92915050565b600060208284031215610eec57610eeb610d9d565b5b6000610efa84828501610e21565b91505092915050565b600080600060608486031215610f1c57610f1b610d9d565b5b6000610f2a86828701610deb565b9350506020610f3b86828701610deb565b9250506040610f4c86828701610e21565b9150509250925092565b600060208284031215610f6c57610f6b610d9d565b5b6000610f7a84828501610deb565b91505092915050565b600060ff82169050919050565b610f9981610f83565b82525050565b6000602082019050610fb46000830184610f90565b92915050565b610fc381610dc2565b82525050565b6000602082019050610fde6000830184610fba565b92915050565b60008060408385031215610ffb57610ffa610d9d565b5b600061100985828601610deb565b925050602061101a85828601610deb565b9150509250929050565b7f4f6e6c7920636f6e7472616374206f776e65722063616e20696e63726561736560008201527f2074686520737570706c79000000000000000000000000000000000000000000602082015250565b6000611080602b83610ced565b915061108b82611024565b604082019050919050565b600060208201905081810360008301526110af81611073565b9050919050565b7f416c6c6f77657220686173206e6f7420656e6f75676820746f6b656e73000000600082015250565b60006110ec601d83610ced565b91506110f7826110b6565b602082019050919050565b6000602082019050818103600083015261111b816110df565b9050919050565b7f416c6c6f77616e6365206973206e6f7420656e6f756768000000000000000000600082015250565b6000611158601783610ced565b915061116382611122565b602082019050919050565b600060208201905081810360008301526111878161114b565b9050919050565b7f4e6f7420656e6f75676820746f6b656e73000000000000000000000000000000600082015250565b60006111c4601183610ced565b91506111cf8261118e565b602082019050919050565b600060208201905081810360008301526111f3816111b7565b9050919050565b7f4e487b7100000000000000000000000000000000000000000000000000000000600052601160045260246000fd5b600061123482610e00565b915061123f83610e00565b9250827fffffffffffffffffffffffffffffffffffffffffffffffffffffffffffffffff03821115611274576112736111fa565b5b828201905092915050565b7f4e487b7100000000000000000000000000000000000000000000000000000000600052600160045260246000fd5b60006112b982610e00565b91506112c483610e00565b9250828210156112d7576112d66111fa565b5b82820390509291505056fea2646970667358221220d4cd123d7c74b5f35b0dc482cd36c687a51718bbeb20a9be16e49c15abdecf6964736f6c634300080b0033",
  "immutableReferences": {},
  "source": "// SPDX-License-Identifier: MIT\npragma solidity >=0.4.4 <0.9.0;\nimport \"./ERC20.sol\";\n\ncontract Main {\n    \n    // Instancia del contrato token \n    Token private token;\n    \n    // Owner del contrato \n    address public owner;\n    \n    // Direccion del Smart Contract \n    address public contrato;\n    \n    // Constructor \n    constructor () {\n        token = new Token(10000);\n        owner = msg.sender;\n        contrato = address(this);\n    }\n    \n    // Obtenemos la direccion del Owner\n    function getOwner() public view returns (address) {\n        return owner;\n    }\n    \n    // Obtenemos la direccion del Smart Contract\n    function getContract() public view returns (address){\n        return contrato;\n    }\n    \n    // Establecer el precio de un token \n    function PrecioTokens(uint _numTokens) internal pure returns (uint) {\n        // Conversion de Tokens a ethers: 1 token -> 1 Ether\n        return _numTokens*(1 ether);\n    }\n\n    // Compramos tokens mediante: direccion de destino y cantidad de tokens \n    function send_tokens (address _destinatario, uint _numTokens) public payable {\n        // Filtrar el numero de tokens a comprar\n        require (_numTokens <= 10, \"La cantidad de tokens es demasiado alta.\");\n        // Estavlecer el precio de los tokens\n        uint coste = PrecioTokens(_numTokens);\n        // Se evalua la cantidad de ethers que paga el cliente\n        require(msg.value >= coste, \"Compra menos tokens o paga con mas ethers\");\n        // Diferencia de lo que el cliente paga \n        uint returnValue = msg.value - coste;\n        // Retorna la cantidad de tokens determinada\n        address payable returnAddress = payable(msg.sender);\n        returnAddress.transfer(returnValue);\n        // Obtener el balance de tokens disponibles\n        uint Balance = balance_total();\n        require(_numTokens <= Balance, \"Compra un numero menor de tokens\");\n        // Transferencia de los tokens al destinatario\n        token.transfer(_destinatario, _numTokens);\n    }\n\n    // Generacion de tokens al contrato\n    function GeneraTokens(uint _numTokens) public onlybyOwner(){\n        token.increaseTotalSupply(_numTokens);\n    }\n\n    // Modificador que permita la ejecucin tan solo por el owner\n    modifier onlybyOwner() {\n        require(msg.sender == owner, \"No tienes permisos para esta funcion\");\n        _;\n    }\n    \n    // Obtenemos el balance de tokens de una direccion \n    function balance_direccion(address _direccion) public view returns (uint){\n        return token.balanceOf(_direccion);\n    }\n    \n    // Obtenemos el balance de tokens total del smart contract \n    function balance_total() public view returns (uint) {\n        return token.balanceOf(contrato);\n    }\n    \n}\n\n\n\n\n\n",
  "sourcePath": "/mnt/d/Web/learning-dapps/5. Tokens ERC-20/5.3. Dapp con tokens ERC-20/dapp-erc20/src/truffle/contracts/Main.sol",
  "compiler": {
    "name": "solc",
    "version": "0.8.11+commit.d7f03943.Emscripten.clang"
  },
  "schemaVersion": "3.4.4",
  "updatedAt": "2022-04-14T10:50:50.155Z",
  "networkType": "ethereum",
  "devdoc": {
    "kind": "dev",
    "methods": {},
    "version": 1
  },
  "userdoc": {
    "kind": "user",
    "methods": {},
    "version": 1
  }
}